{
  "_format": "hh-sol-artifact-1",
  "contractName": "Reader",
  "sourceName": "contracts/peripherals/Reader.sol",
  "abi": [
    {
      "inputs": [],
      "name": "BASIS_POINTS_DIVISOR",
      "outputs": [
        {
          "internalType": "uint256",
          "name": "",
          "type": "uint256"
        }
      ],
      "stateMutability": "view",
      "type": "function"
    },
    {
      "inputs": [],
      "name": "POSITION_PROPS_LENGTH",
      "outputs": [
        {
          "internalType": "uint256",
          "name": "",
          "type": "uint256"
        }
      ],
      "stateMutability": "view",
      "type": "function"
    },
    {
      "inputs": [],
      "name": "PRICE_PRECISION",
      "outputs": [
        {
          "internalType": "uint256",
          "name": "",
          "type": "uint256"
        }
      ],
      "stateMutability": "view",
      "type": "function"
    },
    {
      "inputs": [],
      "name": "USDG_DECIMALS",
      "outputs": [
        {
          "internalType": "uint256",
          "name": "",
          "type": "uint256"
        }
      ],
      "stateMutability": "view",
      "type": "function"
    },
    {
      "inputs": [
        {
          "internalType": "contract IVault",
          "name": "_vault",
          "type": "address"
        },
        {
          "internalType": "address",
          "name": "_tokenIn",
          "type": "address"
        },
        {
          "internalType": "address",
          "name": "_tokenOut",
          "type": "address"
        },
        {
          "internalType": "uint256",
          "name": "_amountIn",
          "type": "uint256"
        }
      ],
      "name": "getAmountOut",
      "outputs": [
        {
          "internalType": "uint256",
          "name": "",
          "type": "uint256"
        },
        {
          "internalType": "uint256",
          "name": "",
          "type": "uint256"
        }
      ],
      "stateMutability": "view",
      "type": "function"
    },
    {
      "inputs": [
        {
          "internalType": "contract IVault",
          "name": "_vault",
          "type": "address"
        },
        {
          "internalType": "address",
          "name": "_tokenIn",
          "type": "address"
        },
        {
          "internalType": "address",
          "name": "_tokenOut",
          "type": "address"
        },
        {
          "internalType": "uint256",
          "name": "_amountIn",
          "type": "uint256"
        }
      ],
      "name": "getFeeBasisPoints",
      "outputs": [
        {
          "internalType": "uint256",
          "name": "",
          "type": "uint256"
        },
        {
          "internalType": "uint256",
          "name": "",
          "type": "uint256"
        },
        {
          "internalType": "uint256",
          "name": "",
          "type": "uint256"
        }
      ],
      "stateMutability": "view",
      "type": "function"
    },
    {
      "inputs": [
        {
          "internalType": "address",
          "name": "_vault",
          "type": "address"
        },
        {
          "internalType": "address[]",
          "name": "_tokens",
          "type": "address[]"
        }
      ],
      "name": "getFees",
      "outputs": [
        {
          "internalType": "uint256[]",
          "name": "",
          "type": "uint256[]"
        }
      ],
      "stateMutability": "view",
      "type": "function"
    },
    {
      "inputs": [
        {
          "internalType": "address",
          "name": "_vault",
          "type": "address"
        },
        {
          "internalType": "address",
          "name": "_weth",
          "type": "address"
        },
        {
          "internalType": "uint256",
          "name": "_usdgAmount",
          "type": "uint256"
        },
        {
          "internalType": "address[]",
          "name": "_tokens",
          "type": "address[]"
        }
      ],
      "name": "getFullVaultTokenInfo",
      "outputs": [
        {
          "internalType": "uint256[]",
          "name": "",
          "type": "uint256[]"
        }
      ],
      "stateMutability": "view",
      "type": "function"
    },
    {
      "inputs": [
        {
          "internalType": "address",
          "name": "_vault",
          "type": "address"
        },
        {
          "internalType": "address",
          "name": "_weth",
          "type": "address"
        },
        {
          "internalType": "address[]",
          "name": "_tokens",
          "type": "address[]"
        }
      ],
      "name": "getFundingRates",
      "outputs": [
        {
          "internalType": "uint256[]",
          "name": "",
          "type": "uint256[]"
        }
      ],
      "stateMutability": "view",
      "type": "function"
    },
    {
      "inputs": [
        {
          "internalType": "contract IVault",
          "name": "_vault",
          "type": "address"
        },
        {
          "internalType": "address",
          "name": "_tokenIn",
          "type": "address"
        },
        {
          "internalType": "address",
          "name": "_tokenOut",
          "type": "address"
        }
      ],
      "name": "getMaxAmountIn",
      "outputs": [
        {
          "internalType": "uint256",
          "name": "",
          "type": "uint256"
        }
      ],
      "stateMutability": "view",
      "type": "function"
    },
    {
      "inputs": [
        {
          "internalType": "address",
          "name": "_factory",
          "type": "address"
        },
        {
          "internalType": "address[]",
          "name": "_tokens",
          "type": "address[]"
        }
      ],
      "name": "getPairInfo",
      "outputs": [
        {
          "internalType": "uint256[]",
          "name": "",
          "type": "uint256[]"
        }
      ],
      "stateMutability": "view",
      "type": "function"
    },
    {
      "inputs": [
        {
          "internalType": "address",
          "name": "_vault",
          "type": "address"
        },
        {
          "internalType": "address",
          "name": "_account",
          "type": "address"
        },
        {
          "internalType": "address[]",
          "name": "_collateralTokens",
          "type": "address[]"
        },
        {
          "internalType": "address[]",
          "name": "_indexTokens",
          "type": "address[]"
        },
        {
          "internalType": "bool[]",
          "name": "_isLong",
          "type": "bool[]"
        }
      ],
      "name": "getPositions",
      "outputs": [
        {
          "internalType": "uint256[]",
          "name": "",
          "type": "uint256[]"
        }
      ],
      "stateMutability": "view",
      "type": "function"
    },
    {
      "inputs": [
        {
          "internalType": "contract IVaultPriceFeed",
          "name": "_priceFeed",
          "type": "address"
        },
        {
          "internalType": "address[]",
          "name": "_tokens",
          "type": "address[]"
        }
      ],
      "name": "getPrices",
      "outputs": [
        {
          "internalType": "uint256[]",
          "name": "",
          "type": "uint256[]"
        }
      ],
      "stateMutability": "view",
      "type": "function"
    },
    {
      "inputs": [
        {
          "internalType": "address",
          "name": "_account",
          "type": "address"
        },
        {
          "internalType": "address[]",
          "name": "_yieldTrackers",
          "type": "address[]"
        }
      ],
      "name": "getStakingInfo",
      "outputs": [
        {
          "internalType": "uint256[]",
          "name": "",
          "type": "uint256[]"
        }
      ],
      "stateMutability": "view",
      "type": "function"
    },
    {
      "inputs": [
        {
          "internalType": "address",
          "name": "_account",
          "type": "address"
        },
        {
          "internalType": "address[]",
          "name": "_tokens",
          "type": "address[]"
        }
      ],
      "name": "getTokenBalances",
      "outputs": [
        {
          "internalType": "uint256[]",
          "name": "",
          "type": "uint256[]"
        }
      ],
      "stateMutability": "view",
      "type": "function"
    },
    {
      "inputs": [
        {
          "internalType": "address",
          "name": "_account",
          "type": "address"
        },
        {
          "internalType": "address[]",
          "name": "_tokens",
          "type": "address[]"
        }
      ],
      "name": "getTokenBalancesWithSupplies",
      "outputs": [
        {
          "internalType": "uint256[]",
          "name": "",
          "type": "uint256[]"
        }
      ],
      "stateMutability": "view",
      "type": "function"
    },
    {
      "inputs": [
        {
          "internalType": "contract IERC20",
          "name": "_token",
          "type": "address"
        },
        {
          "internalType": "address[]",
          "name": "_excludedAccounts",
          "type": "address[]"
        }
      ],
      "name": "getTokenSupply",
      "outputs": [
        {
          "internalType": "uint256",
          "name": "",
          "type": "uint256"
        }
      ],
      "stateMutability": "view",
      "type": "function"
    },
    {
      "inputs": [
        {
          "internalType": "contract IERC20",
          "name": "_token",
          "type": "address"
        },
        {
          "internalType": "address[]",
          "name": "_accounts",
          "type": "address[]"
        }
      ],
      "name": "getTotalBalance",
      "outputs": [
        {
          "internalType": "uint256",
          "name": "",
          "type": "uint256"
        }
      ],
      "stateMutability": "view",
      "type": "function"
    },
    {
      "inputs": [
        {
          "internalType": "address[]",
          "name": "_yieldTokens",
          "type": "address[]"
        }
      ],
      "name": "getTotalStaked",
      "outputs": [
        {
          "internalType": "uint256[]",
          "name": "",
          "type": "uint256[]"
        }
      ],
      "stateMutability": "view",
      "type": "function"
    },
    {
      "inputs": [
        {
          "internalType": "address",
          "name": "_vault",
          "type": "address"
        },
        {
          "internalType": "address",
          "name": "_weth",
          "type": "address"
        },
        {
          "internalType": "uint256",
          "name": "_usdgAmount",
          "type": "uint256"
        },
        {
          "internalType": "address[]",
          "name": "_tokens",
          "type": "address[]"
        }
      ],
      "name": "getVaultTokenInfo",
      "outputs": [
        {
          "internalType": "uint256[]",
          "name": "",
          "type": "uint256[]"
        }
      ],
      "stateMutability": "view",
      "type": "function"
    },
    {
      "inputs": [
        {
          "internalType": "address",
          "name": "_vault",
          "type": "address"
        },
        {
          "internalType": "address",
          "name": "_weth",
          "type": "address"
        },
        {
          "internalType": "uint256",
          "name": "_usdgAmount",
          "type": "uint256"
        },
        {
          "internalType": "address[]",
          "name": "_tokens",
          "type": "address[]"
        }
      ],
      "name": "getVaultTokenInfoV2",
      "outputs": [
        {
          "internalType": "uint256[]",
          "name": "",
          "type": "uint256[]"
        }
      ],
      "stateMutability": "view",
      "type": "function"
    },
    {
      "inputs": [
        {
          "internalType": "address",
          "name": "_account",
          "type": "address"
        },
        {
          "internalType": "address[]",
          "name": "_vesters",
          "type": "address[]"
        }
      ],
      "name": "getVestingInfo",
      "outputs": [
        {
          "internalType": "uint256[]",
          "name": "",
          "type": "uint256[]"
        }
      ],
      "stateMutability": "view",
      "type": "function"
    },
    {
      "inputs": [],
      "name": "gov",
      "outputs": [
        {
          "internalType": "address",
          "name": "",
          "type": "address"
        }
      ],
      "stateMutability": "view",
      "type": "function"
    },
    {
      "inputs": [],
      "name": "hasMaxGlobalShortSizes",
      "outputs": [
        {
          "internalType": "bool",
          "name": "",
          "type": "bool"
        }
      ],
      "stateMutability": "view",
      "type": "function"
    },
    {
      "inputs": [
        {
          "internalType": "bool",
          "name": "_hasMaxGlobalShortSizes",
          "type": "bool"
        }
      ],
      "name": "setConfig",
      "outputs": [],
      "stateMutability": "nonpayable",
      "type": "function"
    },
    {
      "inputs": [
        {
          "internalType": "address",
          "name": "_gov",
          "type": "address"
        }
      ],
      "name": "setGov",
      "outputs": [],
      "stateMutability": "nonpayable",
      "type": "function"
    }
  ],
  "bytecode": "0x608060405234801561001057600080fd5b50600080546001600160a01b031916331790556159eb80620000336000396000f3fe608060405234801561001057600080fd5b506004361061013e5760003560e01c8063126082cf1461014357806312d43a511461015d57806320542568146101815780632413c8c1146102925780632ac0184c146103335780632e3e3342146103e45780633613d52714610495578063440f018c1461054657806348211934146105a05780637b906e931461065157806386d4d0f514610712578063870d917c146107c35780638e83ca32146107cb578063937a0be81461088c57806395082d251461093d57806395a7535a146109455780639b0183c3146109ff578063a4543ead14610a20578063ad7e549714610ad1578063c6f1d67614610ad9578063cfad57a214610af5578063d7176ca914610b1b578063d802178e14610b70578063dc383cab14610c21578063f3535e6c14610ddf578063fbdb05ca14610e17575b600080fd5b61014b610ec8565b60408051918252519081900360200190f35b610165610ece565b604080516001600160a01b039092168252519081900360200190f35b6102426004803603608081101561019757600080fd5b6001600160a01b03823581169260208101359091169160408201359190810190608081016060820135600160201b8111156101d157600080fd5b8201836020820111156101e357600080fd5b803590602001918460208302840111600160201b8311171561020457600080fd5b919080806020026020016040519081016040528093929190818152602001838360200280828437600092019190915250929550610edd945050505050565b60408051602080825283518183015283519192839290830191858101910280838360005b8381101561027e578181015183820152602001610266565b505050509050019250505060405180910390f35b610242600480360360208110156102a857600080fd5b810190602081018135600160201b8111156102c257600080fd5b8201836020820111156102d457600080fd5b803590602001918460208302840111600160201b831117156102f557600080fd5b9190808060200260200160405190810160405280939291908181526020018383602002808284376000920191909152509295506115eb945050505050565b61014b6004803603604081101561034957600080fd5b6001600160a01b038235169190810190604081016020820135600160201b81111561037357600080fd5b82018360208201111561038557600080fd5b803590602001918460208302840111600160201b831117156103a657600080fd5b9190808060200260200160405190810160405280939291908181526020018383602002808284376000920191909152509295506116e4945050505050565b610242600480360360408110156103fa57600080fd5b6001600160a01b038235169190810190604081016020820135600160201b81111561042457600080fd5b82018360208201111561043657600080fd5b803590602001918460208302840111600160201b8311171561045757600080fd5b91908080602002602001604051908101604052809392919081815260200183836020028082843760009201919091525092955061180f945050505050565b610242600480360360408110156104ab57600080fd5b6001600160a01b038235169190810190604081016020820135600160201b8111156104d557600080fd5b8201836020820111156104e757600080fd5b803590602001918460208302840111600160201b8311171561050857600080fd5b919080806020026020016040519081016040528093929190818152602001838360200280828437600092019190915250929550611a14945050505050565b6105826004803603608081101561055c57600080fd5b506001600160a01b03813581169160208101358216916040820135169060600135611e3a565b60408051938452602084019290925282820152519081900360600190f35b610242600480360360408110156105b657600080fd5b6001600160a01b038235169190810190604081016020820135600160201b8111156105e057600080fd5b8201836020820111156105f257600080fd5b803590602001918460208302840111600160201b8311171561061357600080fd5b91908080602002602001604051908101604052809392919081815260200183836020028082843760009201919091525092955061239f945050505050565b6102426004803603608081101561066757600080fd5b6001600160a01b03823581169260208101359091169160408201359190810190608081016060820135600160201b8111156106a157600080fd5b8201836020820111156106b357600080fd5b803590602001918460208302840111600160201b831117156106d457600080fd5b919080806020026020016040519081016040528093929190818152602001838360200280828437600092019190915250929550612853945050505050565b6102426004803603604081101561072857600080fd5b6001600160a01b038235169190810190604081016020820135600160201b81111561075257600080fd5b82018360208201111561076457600080fd5b803590602001918460208302840111600160201b8311171561078557600080fd5b919080806020026020016040519081016040528093929190818152602001838360200280828437600092019190915250929550613084945050505050565b61014b613184565b610242600480360360808110156107e157600080fd5b6001600160a01b03823581169260208101359091169160408201359190810190608081016060820135600160201b81111561081b57600080fd5b82018360208201111561082d57600080fd5b803590602001918460208302840111600160201b8311171561084e57600080fd5b919080806020026020016040519081016040528093929190818152602001838360200280828437600092019190915250929550613189945050505050565b610242600480360360408110156108a257600080fd5b6001600160a01b038235169190810190604081016020820135600160201b8111156108cc57600080fd5b8201836020820111156108de57600080fd5b803590602001918460208302840111600160201b831117156108ff57600080fd5b919080806020026020016040519081016040528093929190818152602001838360200280828437600092019190915250929550613b06945050505050565b61014b613c9b565b6102426004803603606081101561095b57600080fd5b6001600160a01b038235811692602081013590911691810190606081016040820135600160201b81111561098e57600080fd5b8201836020820111156109a057600080fd5b803590602001918460208302840111600160201b831117156109c157600080fd5b919080806020026020016040519081016040528093929190818152602001838360200280828437600092019190915250929550613cab945050505050565b610a1e60048036036020811015610a1557600080fd5b50351515614179565b005b61024260048036036040811015610a3657600080fd5b6001600160a01b038235169190810190604081016020820135600160201b811115610a6057600080fd5b820183602082011115610a7257600080fd5b803590602001918460208302840111600160201b83111715610a9357600080fd5b9190808060200260200160405190810160405280939291908181526020018383602002808284376000920191909152509295506141ee945050505050565b61014b61445a565b610ae161445f565b604080519115158252519081900360200190f35b610a1e60048036036020811015610b0b57600080fd5b50356001600160a01b031661446f565b610b5760048036036080811015610b3157600080fd5b506001600160a01b038135811691602081013582169160408201351690606001356144e8565b6040805192835260208301919091528051918290030190f35b61024260048036036040811015610b8657600080fd5b6001600160a01b038235169190810190604081016020820135600160201b811115610bb057600080fd5b820183602082011115610bc257600080fd5b803590602001918460208302840111600160201b83111715610be357600080fd5b919080806020026020016040519081016040528093929190818152602001838360200280828437600092019190915250929550614b9e945050505050565b610242600480360360a0811015610c3757600080fd5b6001600160a01b038235811692602081013590911691810190606081016040820135600160201b811115610c6a57600080fd5b820183602082011115610c7c57600080fd5b803590602001918460208302840111600160201b83111715610c9d57600080fd5b9190808060200260200160405190810160405280939291908181526020018383602002808284376000920191909152509295949360208101935035915050600160201b811115610cec57600080fd5b820183602082011115610cfe57600080fd5b803590602001918460208302840111600160201b83111715610d1f57600080fd5b9190808060200260200160405190810160405280939291908181526020018383602002808284376000920191909152509295949360208101935035915050600160201b811115610d6e57600080fd5b820183602082011115610d8057600080fd5b803590602001918460208302840111600160201b83111715610da157600080fd5b919080806020026020016040519081016040528093929190818152602001838360200280828437600092019190915250929550614cea945050505050565b61014b60048036036060811015610df557600080fd5b506001600160a01b0381358116916020810135821691604090910135166150e6565b61014b60048036036040811015610e2d57600080fd5b6001600160a01b038235169190810190604081016020820135600160201b811115610e5757600080fd5b820183602082011115610e6957600080fd5b803590602001918460208302840111600160201b83111715610e8a57600080fd5b9190808060200260200160405190810160405280939291908181526020018383602002808284376000920191909152509295506156ad945050505050565b61271081565b6000546001600160a01b031681565b60606000600a905060008690506000816001600160a01b031663741bef1a6040518163ffffffff1660e01b815260040160206040518083038186803b158015610f2557600080fd5b505afa158015610f39573d6000803e3d6000fd5b505050506040513d6020811015610f4f57600080fd5b5051855190915060609084026001600160401b0381118015610f7057600080fd5b50604051908082528060200260200182016040528015610f9a578160200160208202803683370190505b50905060005b86518110156115de576000878281518110610fb757fe5b6020026020010151905060006001600160a01b0316816001600160a01b03161415610fdf5750885b846001600160a01b03166352f55eed826040518263ffffffff1660e01b815260040180826001600160a01b0316815260200191505060206040518083038186803b15801561102c57600080fd5b505afa158015611040573d6000803e3d6000fd5b505050506040513d602081101561105657600080fd5b50518351849084890290811061106857fe5b602002602001018181525050846001600160a01b031663c3c7b9e9826040518263ffffffff1660e01b815260040180826001600160a01b0316815260200191505060206040518083038186803b1580156110c157600080fd5b505afa1580156110d5573d6000803e3d6000fd5b505050506040513d60208110156110eb57600080fd5b5051835184906001858a020190811061110057fe5b602002602001018181525050846001600160a01b0316631aa4ace5826040518263ffffffff1660e01b815260040180826001600160a01b0316815260200191505060206040518083038186803b15801561115957600080fd5b505afa15801561116d573d6000803e3d6000fd5b505050506040513d602081101561118357600080fd5b5051835184906002858a020190811061119857fe5b602002602001018181525050846001600160a01b0316632c668ec1828b6040518363ffffffff1660e01b815260040180836001600160a01b031681526020018281526020019250505060206040518083038186803b1580156111f957600080fd5b505afa15801561120d573d6000803e3d6000fd5b505050506040513d602081101561122357600080fd5b5051835184906003858a020190811061123857fe5b602002602001018181525050846001600160a01b031663ab2f3ad4826040518263ffffffff1660e01b815260040180826001600160a01b0316815260200191505060206040518083038186803b15801561129157600080fd5b505afa1580156112a5573d6000803e3d6000fd5b505050506040513d60208110156112bb57600080fd5b5051835184906004858a02019081106112d057fe5b602002602001018181525050846001600160a01b03166381a612d6826040518263ffffffff1660e01b815260040180826001600160a01b0316815260200191505060206040518083038186803b15801561132957600080fd5b505afa15801561133d573d6000803e3d6000fd5b505050506040513d602081101561135357600080fd5b5051835184906005858a020190811061136857fe5b602002602001018181525050846001600160a01b031663e124e6d2826040518263ffffffff1660e01b815260040180826001600160a01b0316815260200191505060206040518083038186803b1580156113c157600080fd5b505afa1580156113d5573d6000803e3d6000fd5b505050506040513d60208110156113eb57600080fd5b5051835184906006858a020190811061140057fe5b602002602001018181525050846001600160a01b031663f07456ce826040518263ffffffff1660e01b815260040180826001600160a01b0316815260200191505060206040518083038186803b15801561145957600080fd5b505afa15801561146d573d6000803e3d6000fd5b505050506040513d602081101561148357600080fd5b5051835184906007858a020190811061149857fe5b602090810291909101810191909152604080516356c8c2c160e01b81526001600160a01b038481166004830152600060248301529151918716926356c8c2c192604480840193829003018186803b1580156114f257600080fd5b505afa158015611506573d6000803e3d6000fd5b505050506040513d602081101561151c57600080fd5b5051835184906008858a020190811061153157fe5b602090810291909101810191909152604080516356c8c2c160e01b81526001600160a01b038481166004830152600160248301529151918716926356c8c2c192604480840193829003018186803b15801561158b57600080fd5b505afa15801561159f573d6000803e3d6000fd5b505050506040513d60208110156115b557600080fd5b5051835184906009858a02019081106115ca57fe5b602090810291909101015250600101610fa0565b5098975050505050505050565b60608082516001600160401b038111801561160557600080fd5b5060405190808252806020026020018201604052801561162f578160200160208202803683370190505b50905060005b83518110156116dd57600084828151811061164c57fe5b60200260200101519050806001600160a01b031663817b1cd26040518163ffffffff1660e01b815260040160206040518083038186803b15801561168f57600080fd5b505afa1580156116a3573d6000803e3d6000fd5b505050506040513d60208110156116b957600080fd5b505183518490849081106116c957fe5b602090810291909101015250600101611635565b5092915050565b600080836001600160a01b03166318160ddd6040518163ffffffff1660e01b815260040160206040518083038186803b15801561172057600080fd5b505afa158015611734573d6000803e3d6000fd5b505050506040513d602081101561174a57600080fd5b5051905060005b835181101561180557600084828151811061176857fe5b602002602001015190506000866001600160a01b03166370a08231836040518263ffffffff1660e01b815260040180826001600160a01b0316815260200191505060206040518083038186803b1580156117c157600080fd5b505afa1580156117d5573d6000803e3d6000fd5b505050506040513d60208110156117eb57600080fd5b505190506117f98482615766565b93505050600101611751565b5090505b92915050565b60606000600290506060818451026001600160401b038111801561183257600080fd5b5060405190808252806020026020018201604052801561185c578160200160208202803683370190505b50905060005b8451811015611a0b57600085828151811061187957fe5b6020026020010151905060006001600160a01b0316816001600160a01b031614156118e857866001600160a01b03163183858402815181106118b757fe5b602002602001018181525050600083858402600101815181106118d657fe5b60200260200101818152505050611a03565b806001600160a01b03166370a08231886040518263ffffffff1660e01b815260040180826001600160a01b0316815260200191505060206040518083038186803b15801561193557600080fd5b505afa158015611949573d6000803e3d6000fd5b505050506040513d602081101561195f57600080fd5b50518351849084870290811061197157fe5b602002602001018181525050806001600160a01b03166318160ddd6040518163ffffffff1660e01b815260040160206040518083038186803b1580156119b657600080fd5b505afa1580156119ca573d6000803e3d6000fd5b505050506040513d60208110156119e057600080fd5b5051835184906001858802019081106119f557fe5b602002602001018181525050505b600101611862565b50949350505050565b60606000600690506060818451026001600160401b0381118015611a3757600080fd5b50604051908082528060200260200182016040528015611a61578160200160208202803683370190505b50905060005b8451811015611a0b576000858281518110611a7e57fe5b60200260200101519050866001600160a01b03166376d697608260016040518363ffffffff1660e01b815260040180836001600160a01b0316815260200182151581526020019250505060206040518083038186803b158015611ae057600080fd5b505afa158015611af4573d6000803e3d6000fd5b505050506040513d6020811015611b0a57600080fd5b505183518490848702908110611b1c57fe5b602090810291909101810191909152604080516303b6b4bb60e51b81526001600160a01b038481166004830152600060248301529151918a16926376d6976092604480840193829003018186803b158015611b7657600080fd5b505afa158015611b8a573d6000803e3d6000fd5b505050506040513d6020811015611ba057600080fd5b505183518490600185880201908110611bb557fe5b602090810291909101810191909152604080516356c8c2c160e01b81526001600160a01b038481166004830152600160248301529151918a16926356c8c2c192604480840193829003018186803b158015611c0f57600080fd5b505afa158015611c23573d6000803e3d6000fd5b505050506040513d6020811015611c3957600080fd5b505183518490600285880201908110611c4e57fe5b602090810291909101810191909152604080516356c8c2c160e01b81526001600160a01b038481166004830152600060248301529151918a16926356c8c2c192604480840193829003018186803b158015611ca857600080fd5b505afa158015611cbc573d6000803e3d6000fd5b505050506040513d6020811015611cd257600080fd5b505183518490600385880201908110611ce757fe5b602002602001018181525050866001600160a01b0316636ce8a44b826040518263ffffffff1660e01b815260040180826001600160a01b0316815260200191505060206040518083038186803b158015611d4057600080fd5b505afa158015611d54573d6000803e3d6000fd5b505050506040513d6020811015611d6a57600080fd5b5051611d77576000611d7a565b60015b60ff168385840260040181518110611d8e57fe5b602002602001018181525050866001600160a01b03166348cac277826040518263ffffffff1660e01b815260040180826001600160a01b0316815260200191505060206040518083038186803b158015611de757600080fd5b505afa158015611dfb573d6000803e3d6000fd5b505050506040513d6020811015611e1157600080fd5b505183518490600585880201908110611e2657fe5b602090810291909101015250600101611a67565b600080600080876001600160a01b03166381a612d6886040518263ffffffff1660e01b815260040180826001600160a01b0316815260200191505060206040518083038186803b158015611e8d57600080fd5b505afa158015611ea1573d6000803e3d6000fd5b505050506040513d6020811015611eb757600080fd5b5051604080516323b95ceb60e21b81526001600160a01b038a811660048301529151929350600092918b1691638ee573ac91602480820192602092909190829003018186803b158015611f0957600080fd5b505afa158015611f1d573d6000803e3d6000fd5b505050506040513d6020811015611f3357600080fd5b505190506000611f5968327cb2734119d3b7a9601e1b611f5389866157a8565b90615801565b9050611f75600a83900a611f5383670de0b6b3a76400006157a8565b905060008a6001600160a01b03166342b60b038b6040518263ffffffff1660e01b815260040180826001600160a01b0316815260200191505060206040518083038186803b158015611fc657600080fd5b505afa158015611fda573d6000803e3d6000fd5b505050506040513d6020811015611ff057600080fd5b5051801561207357508a6001600160a01b03166342b60b038a6040518263ffffffff1660e01b815260040180826001600160a01b0316815260200191505060206040518083038186803b15801561204657600080fd5b505afa15801561205a573d6000803e3d6000fd5b505050506040513d602081101561207057600080fd5b50515b90506000816120e6578b6001600160a01b031663a22f23926040518163ffffffff1660e01b815260040160206040518083038186803b1580156120b557600080fd5b505afa1580156120c9573d6000803e3d6000fd5b505050506040513d60208110156120df57600080fd5b505161214c565b8b6001600160a01b031663df73a2676040518163ffffffff1660e01b815260040160206040518083038186803b15801561211f57600080fd5b505afa158015612133573d6000803e3d6000fd5b505050506040513d602081101561214957600080fd5b50515b90506000826121bf578c6001600160a01b0316637a210a2b6040518163ffffffff1660e01b815260040160206040518083038186803b15801561218e57600080fd5b505afa1580156121a2573d6000803e3d6000fd5b505050506040513d60208110156121b857600080fd5b5051612225565b8c6001600160a01b03166310eb56c26040518163ffffffff1660e01b815260040160206040518083038186803b1580156121f857600080fd5b505afa15801561220c573d6000803e3d6000fd5b505050506040513d602081101561222257600080fd5b50515b905060008d6001600160a01b031663c7e074c38e87868660016040518663ffffffff1660e01b815260040180866001600160a01b0316815260200185815260200184815260200183815260200182151581526020019550505050505060206040518083038186803b15801561229957600080fd5b505afa1580156122ad573d6000803e3d6000fd5b505050506040513d60208110156122c357600080fd5b8101908080519060200190929190505050905060008e6001600160a01b031663c7e074c38e88878760006040518663ffffffff1660e01b815260040180866001600160a01b0316815260200185815260200184815260200183815260200182151581526020019550505050505060206040518083038186803b15801561234857600080fd5b505afa15801561235c573d6000803e3d6000fd5b505050506040513d602081101561237257600080fd5b5051905060008183116123855781612387565b825b9b509199509750505050505050509450945094915050565b60606000600790506060818451026001600160401b03811180156123c257600080fd5b506040519080825280602002602001820160405280156123ec578160200160208202803683370190505b50905060005b8451811015611a0b57600085828151811061240957fe5b60200260200101519050806001600160a01b0316635d50e729886040518263ffffffff1660e01b815260040180826001600160a01b0316815260200191505060206040518083038186803b15801561246057600080fd5b505afa158015612474573d6000803e3d6000fd5b505050506040513d602081101561248a57600080fd5b50518351849084870290811061249c57fe5b602002602001018181525050806001600160a01b031663d5a73fdd886040518263ffffffff1660e01b815260040180826001600160a01b0316815260200191505060206040518083038186803b1580156124f557600080fd5b505afa158015612509573d6000803e3d6000fd5b505050506040513d602081101561251f57600080fd5b50518351849060018588020190811061253457fe5b60200260200101818152505085828151811061254c57fe5b60200260200101516001600160a01b03166370a08231886040518263ffffffff1660e01b815260040180826001600160a01b0316815260200191505060206040518083038186803b1580156125a057600080fd5b505afa1580156125b4573d6000803e3d6000fd5b505050506040513d60208110156125ca57600080fd5b5051835184906002858802019081106125df57fe5b602002602001018181525050806001600160a01b03166371417b32886040518263ffffffff1660e01b815260040180826001600160a01b0316815260200191505060206040518083038186803b15801561263857600080fd5b505afa15801561264c573d6000803e3d6000fd5b505050506040513d602081101561266257600080fd5b50518351849060038588020190811061267757fe5b602002602001018181525050806001600160a01b031663402914f5886040518263ffffffff1660e01b815260040180826001600160a01b0316815260200191505060206040518083038186803b1580156126d057600080fd5b505afa1580156126e4573d6000803e3d6000fd5b505050506040513d60208110156126fa57600080fd5b50518351849060048588020190811061270f57fe5b602002602001018181525050806001600160a01b03166308f26c76886040518263ffffffff1660e01b815260040180826001600160a01b0316815260200191505060206040518083038186803b15801561276857600080fd5b505afa15801561277c573d6000803e3d6000fd5b505050506040513d602081101561279257600080fd5b5051835184906005858802019081106127a757fe5b602002602001018181525050806001600160a01b03166345f01ee6886040518263ffffffff1660e01b815260040180826001600160a01b0316815260200191505060206040518083038186803b15801561280057600080fd5b505afa158015612814573d6000803e3d6000fd5b505050506040513d602081101561282a57600080fd5b50518351849060068588020190811061283f57fe5b6020908102919091010152506001016123f2565b60606000600c905060008690506000816001600160a01b031663741bef1a6040518163ffffffff1660e01b815260040160206040518083038186803b15801561289b57600080fd5b505afa1580156128af573d6000803e3d6000fd5b505050506040513d60208110156128c557600080fd5b5051855190915060609084026001600160401b03811180156128e657600080fd5b50604051908082528060200260200182016040528015612910578160200160208202803683370190505b50905060005b86518110156115de57600087828151811061292d57fe5b6020026020010151905060006001600160a01b0316816001600160a01b031614156129555750885b846001600160a01b03166352f55eed826040518263ffffffff1660e01b815260040180826001600160a01b0316815260200191505060206040518083038186803b1580156129a257600080fd5b505afa1580156129b6573d6000803e3d6000fd5b505050506040513d60208110156129cc57600080fd5b5051835184908489029081106129de57fe5b602002602001018181525050846001600160a01b031663c3c7b9e9826040518263ffffffff1660e01b815260040180826001600160a01b0316815260200191505060206040518083038186803b158015612a3757600080fd5b505afa158015612a4b573d6000803e3d6000fd5b505050506040513d6020811015612a6157600080fd5b5051835184906001858a0201908110612a7657fe5b602002602001018181525050846001600160a01b0316631aa4ace5826040518263ffffffff1660e01b815260040180826001600160a01b0316815260200191505060206040518083038186803b158015612acf57600080fd5b505afa158015612ae3573d6000803e3d6000fd5b505050506040513d6020811015612af957600080fd5b5051835184906002858a0201908110612b0e57fe5b602002602001018181525050846001600160a01b0316632c668ec1828b6040518363ffffffff1660e01b815260040180836001600160a01b031681526020018281526020019250505060206040518083038186803b158015612b6f57600080fd5b505afa158015612b83573d6000803e3d6000fd5b505050506040513d6020811015612b9957600080fd5b5051835184906003858a0201908110612bae57fe5b602002602001018181525050846001600160a01b031663ab2f3ad4826040518263ffffffff1660e01b815260040180826001600160a01b0316815260200191505060206040518083038186803b158015612c0757600080fd5b505afa158015612c1b573d6000803e3d6000fd5b505050506040513d6020811015612c3157600080fd5b5051835184906004858a0201908110612c4657fe5b602002602001018181525050846001600160a01b0316634a993ee9826040518263ffffffff1660e01b815260040180826001600160a01b0316815260200191505060206040518083038186803b158015612c9f57600080fd5b505afa158015612cb3573d6000803e3d6000fd5b505050506040513d6020811015612cc957600080fd5b5051835184906005858a0201908110612cde57fe5b602002602001018181525050846001600160a01b031663ad1e4f8d826040518263ffffffff1660e01b815260040180826001600160a01b0316815260200191505060206040518083038186803b158015612d3757600080fd5b505afa158015612d4b573d6000803e3d6000fd5b505050506040513d6020811015612d6157600080fd5b5051835184906006858a0201908110612d7657fe5b602002602001018181525050846001600160a01b03166381a612d6826040518263ffffffff1660e01b815260040180826001600160a01b0316815260200191505060206040518083038186803b158015612dcf57600080fd5b505afa158015612de3573d6000803e3d6000fd5b505050506040513d6020811015612df957600080fd5b5051835184906007858a0201908110612e0e57fe5b602002602001018181525050846001600160a01b031663e124e6d2826040518263ffffffff1660e01b815260040180826001600160a01b0316815260200191505060206040518083038186803b158015612e6757600080fd5b505afa158015612e7b573d6000803e3d6000fd5b505050506040513d6020811015612e9157600080fd5b5051835184906008858a0201908110612ea657fe5b602002602001018181525050846001600160a01b031663f07456ce826040518263ffffffff1660e01b815260040180826001600160a01b0316815260200191505060206040518083038186803b158015612eff57600080fd5b505afa158015612f13573d6000803e3d6000fd5b505050506040513d6020811015612f2957600080fd5b5051835184906009858a0201908110612f3e57fe5b602090810291909101810191909152604080516356c8c2c160e01b81526001600160a01b038481166004830152600060248301529151918716926356c8c2c192604480840193829003018186803b158015612f9857600080fd5b505afa158015612fac573d6000803e3d6000fd5b505050506040513d6020811015612fc257600080fd5b505183518490600a858a0201908110612fd757fe5b602090810291909101810191909152604080516356c8c2c160e01b81526001600160a01b038481166004830152600160248301529151918716926356c8c2c192604480840193829003018186803b15801561303157600080fd5b505afa158015613045573d6000803e3d6000fd5b505050506040513d602081101561305b57600080fd5b505183518490600b858a020190811061307057fe5b602090810291909101015250600101612916565b60608082516001600160401b038111801561309e57600080fd5b506040519080825280602002602001820160405280156130c8578160200160208202803683370190505b50905060005b835181101561180557846001600160a01b0316631ce9cb8f8583815181106130f257fe5b60200260200101516040518263ffffffff1660e01b815260040180826001600160a01b0316815260200191505060206040518083038186803b15801561313757600080fd5b505afa15801561314b573d6000803e3d6000fd5b505050506040513d602081101561316157600080fd5b5051825183908390811061317157fe5b60209081029190910101526001016130ce565b601281565b60606000600e905060008690506000816001600160a01b031663741bef1a6040518163ffffffff1660e01b815260040160206040518083038186803b1580156131d157600080fd5b505afa1580156131e5573d6000803e3d6000fd5b505050506040513d60208110156131fb57600080fd5b5051855190915060609084026001600160401b038111801561321c57600080fd5b50604051908082528060200260200182016040528015613246578160200160208202803683370190505b50905060005b86518110156115de57600087828151811061326357fe5b6020026020010151905060006001600160a01b0316816001600160a01b0316141561328b5750885b60008054600160a01b900460ff166132a457600061331e565b856001600160a01b0316639698d25a836040518263ffffffff1660e01b815260040180826001600160a01b0316815260200191505060206040518083038186803b1580156132f157600080fd5b505afa158015613305573d6000803e3d6000fd5b505050506040513d602081101561331b57600080fd5b50515b9050856001600160a01b03166352f55eed836040518263ffffffff1660e01b815260040180826001600160a01b0316815260200191505060206040518083038186803b15801561336d57600080fd5b505afa158015613381573d6000803e3d6000fd5b505050506040513d602081101561339757600080fd5b505184518590858a029081106133a957fe5b602002602001018181525050856001600160a01b031663c3c7b9e9836040518263ffffffff1660e01b815260040180826001600160a01b0316815260200191505060206040518083038186803b15801561340257600080fd5b505afa158015613416573d6000803e3d6000fd5b505050506040513d602081101561342c57600080fd5b5051845185906001868b020190811061344157fe5b602002602001018181525050856001600160a01b0316631aa4ace5836040518263ffffffff1660e01b815260040180826001600160a01b0316815260200191505060206040518083038186803b15801561349a57600080fd5b505afa1580156134ae573d6000803e3d6000fd5b505050506040513d60208110156134c457600080fd5b5051845185906002868b02019081106134d957fe5b602002602001018181525050856001600160a01b0316632c668ec1838c6040518363ffffffff1660e01b815260040180836001600160a01b031681526020018281526020019250505060206040518083038186803b15801561353a57600080fd5b505afa15801561354e573d6000803e3d6000fd5b505050506040513d602081101561356457600080fd5b5051845185906003868b020190811061357957fe5b602002602001018181525050856001600160a01b031663ab2f3ad4836040518263ffffffff1660e01b815260040180826001600160a01b0316815260200191505060206040518083038186803b1580156135d257600080fd5b505afa1580156135e6573d6000803e3d6000fd5b505050506040513d60208110156135fc57600080fd5b5051845185906004868b020190811061361157fe5b602002602001018181525050856001600160a01b0316634a993ee9836040518263ffffffff1660e01b815260040180826001600160a01b0316815260200191505060206040518083038186803b15801561366a57600080fd5b505afa15801561367e573d6000803e3d6000fd5b505050506040513d602081101561369457600080fd5b5051845185906005868b02019081106136a957fe5b602002602001018181525050856001600160a01b031663ad1e4f8d836040518263ffffffff1660e01b815260040180826001600160a01b0316815260200191505060206040518083038186803b15801561370257600080fd5b505afa158015613716573d6000803e3d6000fd5b505050506040513d602081101561372c57600080fd5b5051845185906006868b020190811061374157fe5b602002602001018181525050856001600160a01b0316638a78daa8836040518263ffffffff1660e01b815260040180826001600160a01b0316815260200191505060206040518083038186803b15801561379a57600080fd5b505afa1580156137ae573d6000803e3d6000fd5b505050506040513d60208110156137c457600080fd5b5051845185906007868b02019081106137d957fe5b6020026020010181815250508084888502600801815181106137f757fe5b602002602001018181525050856001600160a01b03166381a612d6836040518263ffffffff1660e01b815260040180826001600160a01b0316815260200191505060206040518083038186803b15801561385057600080fd5b505afa158015613864573d6000803e3d6000fd5b505050506040513d602081101561387a57600080fd5b5051845185906009868b020190811061388f57fe5b602002602001018181525050856001600160a01b031663e124e6d2836040518263ffffffff1660e01b815260040180826001600160a01b0316815260200191505060206040518083038186803b1580156138e857600080fd5b505afa1580156138fc573d6000803e3d6000fd5b505050506040513d602081101561391257600080fd5b505184518590600a868b020190811061392757fe5b602002602001018181525050856001600160a01b031663f07456ce836040518263ffffffff1660e01b815260040180826001600160a01b0316815260200191505060206040518083038186803b15801561398057600080fd5b505afa158015613994573d6000803e3d6000fd5b505050506040513d60208110156139aa57600080fd5b505184518590600b868b02019081106139bf57fe5b602090810291909101810191909152604080516356c8c2c160e01b81526001600160a01b038581166004830152600060248301529151918816926356c8c2c192604480840193829003018186803b158015613a1957600080fd5b505afa158015613a2d573d6000803e3d6000fd5b505050506040513d6020811015613a4357600080fd5b505184518590600c868b0201908110613a5857fe5b602090810291909101810191909152604080516356c8c2c160e01b81526001600160a01b038581166004830152600160248301529151918816926356c8c2c192604480840193829003018186803b158015613ab257600080fd5b505afa158015613ac6573d6000803e3d6000fd5b505050506040513d6020811015613adc57600080fd5b505184518590600d868b0201908110613af157fe5b6020908102919091010152505060010161324c565b60606000600290506060818451026001600160401b0381118015613b2957600080fd5b50604051908082528060200260200182016040528015613b53578160200160208202803683370190505b50905060005b8451811015611a0b576000858281518110613b7057fe5b60200260200101519050806001600160a01b031663402914f5886040518263ffffffff1660e01b815260040180826001600160a01b0316815260200191505060206040518083038186803b158015613bc757600080fd5b505afa158015613bdb573d6000803e3d6000fd5b505050506040513d6020811015613bf157600080fd5b505183518490848702908110613c0357fe5b602002602001018181525050806001600160a01b0316632459f51d6040518163ffffffff1660e01b815260040160206040518083038186803b158015613c4857600080fd5b505afa158015613c5c573d6000803e3d6000fd5b505050506040513d6020811015613c7257600080fd5b505183518490600185880201908110613c8757fe5b602090810291909101015250600101613b59565b68327cb2734119d3b7a9601e1b81565b60606000600290506060818451026001600160401b0381118015613cce57600080fd5b50604051908082528060200260200182016040528015613cf8578160200160208202803683370190505b5090508560005b855181101561416b576000868281518110613d1657fe5b6020026020010151905060006001600160a01b0316816001600160a01b03161415613d3e5750865b6000836001600160a01b03166342b60b03836040518263ffffffff1660e01b815260040180826001600160a01b0316815260200191505060206040518083038186803b158015613d8d57600080fd5b505afa158015613da1573d6000803e3d6000fd5b505050506040513d6020811015613db757600080fd5b5051613e2757836001600160a01b031663c4f718bf6040518163ffffffff1660e01b815260040160206040518083038186803b158015613df657600080fd5b505afa158015613e0a573d6000803e3d6000fd5b505050506040513d6020811015613e2057600080fd5b5051613e8d565b836001600160a01b031663134ca63b6040518163ffffffff1660e01b815260040160206040518083038186803b158015613e6057600080fd5b505afa158015613e74573d6000803e3d6000fd5b505050506040513d6020811015613e8a57600080fd5b50515b90506000846001600160a01b031663c3c7b9e9846040518263ffffffff1660e01b815260040180826001600160a01b0316815260200191505060206040518083038186803b158015613ede57600080fd5b505afa158015613ef2573d6000803e3d6000fd5b505050506040513d6020811015613f0857600080fd5b5051604080516352f55eed60e01b81526001600160a01b0386811660048301529151929350600092918816916352f55eed91602480820192602092909190829003018186803b158015613f5a57600080fd5b505afa158015613f6e573d6000803e3d6000fd5b505050506040513d6020811015613f8457600080fd5b505190508015613fb757613f9c81611f5385856157a8565b8789870281518110613faa57fe5b6020026020010181815250505b6000866001600160a01b031663c65bc7b1866040518263ffffffff1660e01b815260040180826001600160a01b0316815260200191505060206040518083038186803b15801561400657600080fd5b505afa15801561401a573d6000803e3d6000fd5b505050506040513d602081101561403057600080fd5b5051111561415b576000866001600160a01b031663a93acac2866040518263ffffffff1660e01b815260040180826001600160a01b0316815260200191505060206040518083038186803b15801561408757600080fd5b505afa15801561409b573d6000803e3d6000fd5b505050506040513d60208110156140b157600080fd5b50516040805163c65bc7b160e01b81526001600160a01b0388811660048301529151929350600092918a169163c65bc7b191602480820192602092909190829003018186803b15801561410357600080fd5b505afa158015614117573d6000803e3d6000fd5b505050506040513d602081101561412d57600080fd5b5051905061413b8183615840565b898b89026001018151811061414c57fe5b60200260200101818152505050505b505060019092019150613cff9050565b5090925050505b9392505050565b6000546001600160a01b031633146141d0576040805162461bcd60e51b815260206004820152601560248201527423b7bb32b93730b136329d103337b93134b23232b760591b604482015290519081900360640190fd5b60008054911515600160a01b0260ff60a01b19909216919091179055565b80516060906002908190839082900482026001600160401b038111801561421457600080fd5b5060405190808252806020026020018201604052801561423e578160200160208202803683370190505b50905060005b8386518161424e57fe5b04811015614450576000868583028151811061426657fe5b602002602001015190506000878684026001018151811061428357fe5b602002602001015190506000896001600160a01b031663e6a4390584846040518363ffffffff1660e01b815260040180836001600160a01b03168152602001826001600160a01b031681526020019250505060206040518083038186803b1580156142ed57600080fd5b505afa158015614301573d6000803e3d6000fd5b505050506040513d602081101561431757600080fd5b5051604080516370a0823160e01b81526001600160a01b0380841660048301529151929350908516916370a0823191602480820192602092909190829003018186803b15801561436657600080fd5b505afa15801561437a573d6000803e3d6000fd5b505050506040513d602081101561439057600080fd5b5051855186908689029081106143a257fe5b602002602001018181525050816001600160a01b03166370a08231826040518263ffffffff1660e01b815260040180826001600160a01b0316815260200191505060206040518083038186803b1580156143fb57600080fd5b505afa15801561440f573d6000803e3d6000fd5b505050506040513d602081101561442557600080fd5b5051855186906001878a020190811061443a57fe5b6020908102919091010152505050600101614244565b5095945050505050565b600981565b600054600160a01b900460ff1681565b6000546001600160a01b031633146144c6576040805162461bcd60e51b815260206004820152601560248201527423b7bb32b93730b136329d103337b93134b23232b760591b604482015290519081900360640190fd5b600080546001600160a01b0319166001600160a01b0392909216919091179055565b6000806000866001600160a01b03166381a612d6876040518263ffffffff1660e01b815260040180826001600160a01b0316815260200191505060206040518083038186803b15801561453a57600080fd5b505afa15801561454e573d6000803e3d6000fd5b505050506040513d602081101561456457600080fd5b5051604080516323b95ceb60e21b81526001600160a01b0389811660048301529151929350600092918a1691638ee573ac91602480820192602092909190829003018186803b1580156145b657600080fd5b505afa1580156145ca573d6000803e3d6000fd5b505050506040513d60208110156145e057600080fd5b5051604080516323b95ceb60e21b81526001600160a01b0389811660048301529151929350600092918b1691638ee573ac91602480820192602092909190829003018186803b15801561463257600080fd5b505afa158015614646573d6000803e3d6000fd5b505050506040513d602081101561465c57600080fd5b5051905060008061467d68327cb2734119d3b7a9601e1b611f538a886157a8565b9050614699600a85900a611f5383670de0b6b3a76400006157a8565b905060008b6001600160a01b03166342b60b038c6040518263ffffffff1660e01b815260040180826001600160a01b0316815260200191505060206040518083038186803b1580156146ea57600080fd5b505afa1580156146fe573d6000803e3d6000fd5b505050506040513d602081101561471457600080fd5b5051801561479757508b6001600160a01b03166342b60b038b6040518263ffffffff1660e01b815260040180826001600160a01b0316815260200191505060206040518083038186803b15801561476a57600080fd5b505afa15801561477e573d6000803e3d6000fd5b505050506040513d602081101561479457600080fd5b50515b905060008161480a578c6001600160a01b031663a22f23926040518163ffffffff1660e01b815260040160206040518083038186803b1580156147d957600080fd5b505afa1580156147ed573d6000803e3d6000fd5b505050506040513d602081101561480357600080fd5b5051614870565b8c6001600160a01b031663df73a2676040518163ffffffff1660e01b815260040160206040518083038186803b15801561484357600080fd5b505afa158015614857573d6000803e3d6000fd5b505050506040513d602081101561486d57600080fd5b50515b90506000826148e3578d6001600160a01b0316637a210a2b6040518163ffffffff1660e01b815260040160206040518083038186803b1580156148b257600080fd5b505afa1580156148c6573d6000803e3d6000fd5b505050506040513d60208110156148dc57600080fd5b5051614949565b8d6001600160a01b03166310eb56c26040518163ffffffff1660e01b815260040160206040518083038186803b15801561491c57600080fd5b505afa158015614930573d6000803e3d6000fd5b505050506040513d602081101561494657600080fd5b50515b905060008e6001600160a01b031663c7e074c38f87868660016040518663ffffffff1660e01b815260040180866001600160a01b0316815260200185815260200184815260200183815260200182151581526020019550505050505060206040518083038186803b1580156149bd57600080fd5b505afa1580156149d1573d6000803e3d6000fd5b505050506040513d60208110156149e757600080fd5b8101908080519060200190929190505050905060008f6001600160a01b031663c7e074c38f88878760006040518663ffffffff1660e01b815260040180866001600160a01b0316815260200185815260200184815260200183815260200182151581526020019550505050505060206040518083038186803b158015614a6c57600080fd5b505afa158015614a80573d6000803e3d6000fd5b505050506040513d6020811015614a9657600080fd5b50519050808211614aa75780614aa9565b815b965050505050505060008a6001600160a01b031663e124e6d28a6040518263ffffffff1660e01b815260040180826001600160a01b0316815260200191505060206040518083038186803b158015614b0057600080fd5b505afa158015614b14573d6000803e3d6000fd5b505050506040513d6020811015614b2a57600080fd5b505190506000614b3e82611f538b896157a8565b9050614b5d85600a0a611f5386600a0a846157a890919063ffffffff16565b90506000614b7b612710611f53614b748288615766565b85906157a8565b90506000614b898383615766565b919e919d50909b505050505050505050505050565b60608082516001600160401b0381118015614bb857600080fd5b50604051908082528060200260200182016040528015614be2578160200160208202803683370190505b50905060005b8351811015611805576000848281518110614bff57fe5b6020026020010151905060006001600160a01b0316816001600160a01b03161415614c4d57856001600160a01b031631838381518110614c3b57fe5b60200260200101818152505050614ce2565b806001600160a01b03166370a08231876040518263ffffffff1660e01b815260040180826001600160a01b0316815260200191505060206040518083038186803b158015614c9a57600080fd5b505afa158015614cae573d6000803e3d6000fd5b505050506040513d6020811015614cc457600080fd5b50518351849084908110614cd457fe5b602002602001018181525050505b600101614be8565b60608060098551026001600160401b0381118015614d0757600080fd5b50604051908082528060200260200182016040528015614d31578160200160208202803683370190505b50905060005b85518110156150db5760008060008060008060008e6001600160a01b0316634a3f088d8f8f8b81518110614d6757fe5b60200260200101518f8c81518110614d7b57fe5b60200260200101518f8d81518110614d8f57fe5b60200260200101516040518563ffffffff1660e01b815260040180856001600160a01b03168152602001846001600160a01b03168152602001836001600160a01b0316815260200182151581526020019450505050506101006040518083038186803b158015614dfe57600080fd5b505afa158015614e12573d6000803e3d6000fd5b505050506040513d610100811015614e2957600080fd5b50805160208201516040830151606084015160a085015160c086015160e0909601518f51959d50939b509199509750955091935090915087908a9060098b02908110614e7157fe5b602002602001018181525050858960098a0260010181518110614e9057fe5b602002602001018181525050848960098a0260020181518110614eaf57fe5b602002602001018181525050838960098a0260030181518110614ece57fe5b60200260200101818152505081614ee6576000614ee9565b60015b60ff168960098a0260040181518110614efe57fe5b602002602001018181525050828960098a0260050181518110614f1d57fe5b602002602001018181525050808960098a0260060181518110614f3c57fe5b602002602001018181525050505050505050506000826009830281518110614f6057fe5b602002602001015190506000836009840260020181518110614f7e57fe5b602002602001015190506000846009850260060181518110614f9c57fe5b6020026020010151905060008211156150d0576000808c6001600160a01b0316635c07eaab8b8881518110614fcd57fe5b602002602001015187878d8b81518110614fe357fe5b6020026020010151886040518663ffffffff1660e01b815260040180866001600160a01b03168152602001858152602001848152602001831515815260200182815260200195505050505050604080518083038186803b15801561504657600080fd5b505afa15801561505a573d6000803e3d6000fd5b505050506040513d604081101561507057600080fd5b50805160209091015190925090508161508a57600061508d565b60015b60ff168760098802600701815181106150a257fe5b602002602001018181525050808760098802600801815181106150c157fe5b60200260200101818152505050505b505050600101614d37565b509695505050505050565b600080846001600160a01b03166381a612d6856040518263ffffffff1660e01b815260040180826001600160a01b0316815260200191505060206040518083038186803b15801561513657600080fd5b505afa15801561514a573d6000803e3d6000fd5b505050506040513d602081101561516057600080fd5b505160408051637092736960e11b81526001600160a01b03868116600483015291519293506000929188169163e124e6d291602480820192602092909190829003018186803b1580156151b257600080fd5b505afa1580156151c6573d6000803e3d6000fd5b505050506040513d60208110156151dc57600080fd5b5051604080516323b95ceb60e21b81526001600160a01b038881166004830152915192935060009291891691638ee573ac91602480820192602092909190829003018186803b15801561522e57600080fd5b505afa158015615242573d6000803e3d6000fd5b505050506040513d602081101561525857600080fd5b5051604080516323b95ceb60e21b81526001600160a01b0388811660048301529151929350600092918a1691638ee573ac91602480820192602092909190829003018186803b1580156152aa57600080fd5b505afa1580156152be573d6000803e3d6000fd5b505050506040513d60208110156152d457600080fd5b5051604080516352f55eed60e01b81526001600160a01b038981166004830152915192935060009283928c16916352f55eed916024808301926020929190829003018186803b15801561532657600080fd5b505afa15801561533a573d6000803e3d6000fd5b505050506040513d602081101561535057600080fd5b50516040805163c3c7b9e960e01b81526001600160a01b038b811660048301529151929350600092918d169163c3c7b9e991602480820192602092909190829003018186803b1580156153a257600080fd5b505afa1580156153b6573d6000803e3d6000fd5b505050506040513d60208110156153cc57600080fd5b505160408051634a993ee960e01b81526001600160a01b038c811660048301529151929350600092918e1691634a993ee991602480820192602092909190829003018186803b15801561541e57600080fd5b505afa158015615432573d6000803e3d6000fd5b505050506040513d602081101561544857600080fd5b50519050600081831161545b578161545d565b825b90508381106154785760009950505050505050505050614172565b60006154848583615766565b90506154b187600a0a611f538a600a0a6154ab8e611f538f886157a890919063ffffffff16565b906157a8565b955050505050506000896001600160a01b031663ad1e4f8d8a6040518263ffffffff1660e01b815260040180826001600160a01b0316815260200191505060206040518083038186803b15801561550757600080fd5b505afa15801561551b573d6000803e3d6000fd5b505050506040513d602081101561553157600080fd5b5051905080156115de57896001600160a01b0316631aa4ace58a6040518263ffffffff1660e01b815260040180826001600160a01b0316815260200191505060206040518083038186803b15801561558857600080fd5b505afa15801561559c573d6000803e3d6000fd5b505050506040513d60208110156155b257600080fd5b50518110156155ca5760009650505050505050614172565b600061564f8b6001600160a01b0316631aa4ace58c6040518263ffffffff1660e01b815260040180826001600160a01b0316815260200191505060206040518083038186803b15801561561c57600080fd5b505afa158015615630573d6000803e3d6000fd5b505050506040513d602081101561564657600080fd5b50518390615766565b905061566b670de0b6b3a7640000611f5383600a89900a6157a8565b905061568787611f538368327cb2734119d3b7a9601e1b6157a8565b90508083111561569f57965061417295505050505050565b505098975050505050505050565b600080805b83518110156118055760008482815181106156c957fe5b602002602001015190506000866001600160a01b03166370a08231836040518263ffffffff1660e01b815260040180826001600160a01b0316815260200191505060206040518083038186803b15801561572257600080fd5b505afa158015615736573d6000803e3d6000fd5b505050506040513d602081101561574c57600080fd5b5051905061575a8482615840565b935050506001016156b2565b600061417283836040518060400160405280601e81526020017f536166654d6174683a207375627472616374696f6e206f766572666c6f770000815250615898565b6000826157b757506000611809565b828202828482816157c457fe5b04146141725760405162461bcd60e51b81526004018080602001828103825260218152602001806159956021913960400191505060405180910390fd5b600061417283836040518060400160405280601a815260200179536166654d6174683a206469766973696f6e206279207a65726f60301b81525061592f565b600082820183811015614172576040805162461bcd60e51b815260206004820152601b60248201527a536166654d6174683a206164646974696f6e206f766572666c6f7760281b604482015290519081900360640190fd5b600081848411156159275760405162461bcd60e51b81526004018080602001828103825283818151815260200191508051906020019080838360005b838110156158ec5781810151838201526020016158d4565b50505050905090810190601f1680156159195780820380516001836020036101000a031916815260200191505b509250505060405180910390fd5b505050900390565b6000818361597e5760405162461bcd60e51b81526020600482018181528351602484015283519092839260449091019190850190808383600083156158ec5781810151838201526020016158d4565b50600083858161598a57fe5b049594505050505056fe536166654d6174683a206d756c7469706c69636174696f6e206f766572666c6f77a26469706673582212207d296bc8ef433ce9f12048ef0bfcb95b42259191b22487cfe4f2f57188e50fef64736f6c634300060c0033",
  "linkReferences": {},
  "deployedLinkReferences": {}
}