{
  "_format": "hh-sol-artifact-1",
  "contractName": "Vault",
  "sourceName": "contracts/core/Vault.sol",
  "abi": [
    {
      "anonymous": false,
      "inputs": [
        {
          "indexed": false,
          "internalType": "address",
          "name": "account",
          "type": "address"
        },
        {
          "indexed": false,
          "internalType": "address",
          "name": "token",
          "type": "address"
        },
        {
          "indexed": false,
          "internalType": "uint256",
          "name": "tokenAmount",
          "type": "uint256"
        },
        {
          "indexed": false,
          "internalType": "uint256",
          "name": "usdgAmount",
          "type": "uint256"
        },
        {
          "indexed": false,
          "internalType": "uint256",
          "name": "feeBasisPoints",
          "type": "uint256"
        }
      ],
      "name": "BuyUSDG",
      "type": "event"
    },
    {
      "anonymous": false,
      "inputs": [
        {
          "indexed": false,
          "internalType": "bytes32",
          "name": "key",
          "type": "bytes32"
        },
        {
          "indexed": false,
          "internalType": "uint256",
          "name": "size",
          "type": "uint256"
        },
        {
          "indexed": false,
          "internalType": "uint256",
          "name": "collateral",
          "type": "uint256"
        },
        {
          "indexed": false,
          "internalType": "uint256",
          "name": "averagePrice",
          "type": "uint256"
        },
        {
          "indexed": false,
          "internalType": "uint256",
          "name": "entryFundingRate",
          "type": "uint256"
        },
        {
          "indexed": false,
          "internalType": "uint256",
          "name": "reserveAmount",
          "type": "uint256"
        },
        {
          "indexed": false,
          "internalType": "int256",
          "name": "realisedPnl",
          "type": "int256"
        }
      ],
      "name": "ClosePosition",
      "type": "event"
    },
    {
      "anonymous": false,
      "inputs": [
        {
          "indexed": false,
          "internalType": "address",
          "name": "token",
          "type": "address"
        },
        {
          "indexed": false,
          "internalType": "uint256",
          "name": "feeUsd",
          "type": "uint256"
        },
        {
          "indexed": false,
          "internalType": "uint256",
          "name": "feeTokens",
          "type": "uint256"
        }
      ],
      "name": "CollectMarginFees",
      "type": "event"
    },
    {
      "anonymous": false,
      "inputs": [
        {
          "indexed": false,
          "internalType": "address",
          "name": "token",
          "type": "address"
        },
        {
          "indexed": false,
          "internalType": "uint256",
          "name": "feeUsd",
          "type": "uint256"
        },
        {
          "indexed": false,
          "internalType": "uint256",
          "name": "feeTokens",
          "type": "uint256"
        }
      ],
      "name": "CollectSwapFees",
      "type": "event"
    },
    {
      "anonymous": false,
      "inputs": [
        {
          "indexed": false,
          "internalType": "address",
          "name": "token",
          "type": "address"
        },
        {
          "indexed": false,
          "internalType": "uint256",
          "name": "amount",
          "type": "uint256"
        }
      ],
      "name": "DecreaseGuaranteedUsd",
      "type": "event"
    },
    {
      "anonymous": false,
      "inputs": [
        {
          "indexed": false,
          "internalType": "address",
          "name": "token",
          "type": "address"
        },
        {
          "indexed": false,
          "internalType": "uint256",
          "name": "amount",
          "type": "uint256"
        }
      ],
      "name": "DecreasePoolAmount",
      "type": "event"
    },
    {
      "anonymous": false,
      "inputs": [
        {
          "indexed": false,
          "internalType": "bytes32",
          "name": "key",
          "type": "bytes32"
        },
        {
          "indexed": false,
          "internalType": "address",
          "name": "account",
          "type": "address"
        },
        {
          "indexed": false,
          "internalType": "address",
          "name": "collateralToken",
          "type": "address"
        },
        {
          "indexed": false,
          "internalType": "address",
          "name": "indexToken",
          "type": "address"
        },
        {
          "indexed": false,
          "internalType": "uint256",
          "name": "collateralDelta",
          "type": "uint256"
        },
        {
          "indexed": false,
          "internalType": "uint256",
          "name": "sizeDelta",
          "type": "uint256"
        },
        {
          "indexed": false,
          "internalType": "bool",
          "name": "isLong",
          "type": "bool"
        },
        {
          "indexed": false,
          "internalType": "uint256",
          "name": "price",
          "type": "uint256"
        },
        {
          "indexed": false,
          "internalType": "uint256",
          "name": "fee",
          "type": "uint256"
        }
      ],
      "name": "DecreasePosition",
      "type": "event"
    },
    {
      "anonymous": false,
      "inputs": [
        {
          "indexed": false,
          "internalType": "address",
          "name": "token",
          "type": "address"
        },
        {
          "indexed": false,
          "internalType": "uint256",
          "name": "amount",
          "type": "uint256"
        }
      ],
      "name": "DecreaseReservedAmount",
      "type": "event"
    },
    {
      "anonymous": false,
      "inputs": [
        {
          "indexed": false,
          "internalType": "address",
          "name": "token",
          "type": "address"
        },
        {
          "indexed": false,
          "internalType": "uint256",
          "name": "amount",
          "type": "uint256"
        }
      ],
      "name": "DecreaseUsdgAmount",
      "type": "event"
    },
    {
      "anonymous": false,
      "inputs": [
        {
          "indexed": false,
          "internalType": "address",
          "name": "token",
          "type": "address"
        },
        {
          "indexed": false,
          "internalType": "uint256",
          "name": "amount",
          "type": "uint256"
        }
      ],
      "name": "DirectPoolDeposit",
      "type": "event"
    },
    {
      "anonymous": false,
      "inputs": [
        {
          "indexed": false,
          "internalType": "address",
          "name": "token",
          "type": "address"
        },
        {
          "indexed": false,
          "internalType": "uint256",
          "name": "amount",
          "type": "uint256"
        }
      ],
      "name": "IncreaseGuaranteedUsd",
      "type": "event"
    },
    {
      "anonymous": false,
      "inputs": [
        {
          "indexed": false,
          "internalType": "address",
          "name": "token",
          "type": "address"
        },
        {
          "indexed": false,
          "internalType": "uint256",
          "name": "amount",
          "type": "uint256"
        }
      ],
      "name": "IncreasePoolAmount",
      "type": "event"
    },
    {
      "anonymous": false,
      "inputs": [
        {
          "indexed": false,
          "internalType": "bytes32",
          "name": "key",
          "type": "bytes32"
        },
        {
          "indexed": false,
          "internalType": "address",
          "name": "account",
          "type": "address"
        },
        {
          "indexed": false,
          "internalType": "address",
          "name": "collateralToken",
          "type": "address"
        },
        {
          "indexed": false,
          "internalType": "address",
          "name": "indexToken",
          "type": "address"
        },
        {
          "indexed": false,
          "internalType": "uint256",
          "name": "collateralDelta",
          "type": "uint256"
        },
        {
          "indexed": false,
          "internalType": "uint256",
          "name": "sizeDelta",
          "type": "uint256"
        },
        {
          "indexed": false,
          "internalType": "bool",
          "name": "isLong",
          "type": "bool"
        },
        {
          "indexed": false,
          "internalType": "uint256",
          "name": "price",
          "type": "uint256"
        },
        {
          "indexed": false,
          "internalType": "uint256",
          "name": "fee",
          "type": "uint256"
        }
      ],
      "name": "IncreasePosition",
      "type": "event"
    },
    {
      "anonymous": false,
      "inputs": [
        {
          "indexed": false,
          "internalType": "address",
          "name": "token",
          "type": "address"
        },
        {
          "indexed": false,
          "internalType": "uint256",
          "name": "amount",
          "type": "uint256"
        }
      ],
      "name": "IncreaseReservedAmount",
      "type": "event"
    },
    {
      "anonymous": false,
      "inputs": [
        {
          "indexed": false,
          "internalType": "address",
          "name": "token",
          "type": "address"
        },
        {
          "indexed": false,
          "internalType": "uint256",
          "name": "amount",
          "type": "uint256"
        }
      ],
      "name": "IncreaseUsdgAmount",
      "type": "event"
    },
    {
      "anonymous": false,
      "inputs": [
        {
          "indexed": false,
          "internalType": "bytes32",
          "name": "key",
          "type": "bytes32"
        },
        {
          "indexed": false,
          "internalType": "address",
          "name": "account",
          "type": "address"
        },
        {
          "indexed": false,
          "internalType": "address",
          "name": "collateralToken",
          "type": "address"
        },
        {
          "indexed": false,
          "internalType": "address",
          "name": "indexToken",
          "type": "address"
        },
        {
          "indexed": false,
          "internalType": "bool",
          "name": "isLong",
          "type": "bool"
        },
        {
          "indexed": false,
          "internalType": "uint256",
          "name": "size",
          "type": "uint256"
        },
        {
          "indexed": false,
          "internalType": "uint256",
          "name": "collateral",
          "type": "uint256"
        },
        {
          "indexed": false,
          "internalType": "uint256",
          "name": "reserveAmount",
          "type": "uint256"
        },
        {
          "indexed": false,
          "internalType": "int256",
          "name": "realisedPnl",
          "type": "int256"
        },
        {
          "indexed": false,
          "internalType": "uint256",
          "name": "markPrice",
          "type": "uint256"
        }
      ],
      "name": "LiquidatePosition",
      "type": "event"
    },
    {
      "anonymous": false,
      "inputs": [
        {
          "indexed": false,
          "internalType": "address",
          "name": "account",
          "type": "address"
        },
        {
          "indexed": false,
          "internalType": "address",
          "name": "token",
          "type": "address"
        },
        {
          "indexed": false,
          "internalType": "uint256",
          "name": "usdgAmount",
          "type": "uint256"
        },
        {
          "indexed": false,
          "internalType": "uint256",
          "name": "tokenAmount",
          "type": "uint256"
        },
        {
          "indexed": false,
          "internalType": "uint256",
          "name": "feeBasisPoints",
          "type": "uint256"
        }
      ],
      "name": "SellUSDG",
      "type": "event"
    },
    {
      "anonymous": false,
      "inputs": [
        {
          "indexed": false,
          "internalType": "address",
          "name": "account",
          "type": "address"
        },
        {
          "indexed": false,
          "internalType": "address",
          "name": "tokenIn",
          "type": "address"
        },
        {
          "indexed": false,
          "internalType": "address",
          "name": "tokenOut",
          "type": "address"
        },
        {
          "indexed": false,
          "internalType": "uint256",
          "name": "amountIn",
          "type": "uint256"
        },
        {
          "indexed": false,
          "internalType": "uint256",
          "name": "amountOut",
          "type": "uint256"
        },
        {
          "indexed": false,
          "internalType": "uint256",
          "name": "amountOutAfterFees",
          "type": "uint256"
        },
        {
          "indexed": false,
          "internalType": "uint256",
          "name": "feeBasisPoints",
          "type": "uint256"
        }
      ],
      "name": "Swap",
      "type": "event"
    },
    {
      "anonymous": false,
      "inputs": [
        {
          "indexed": false,
          "internalType": "address",
          "name": "token",
          "type": "address"
        },
        {
          "indexed": false,
          "internalType": "uint256",
          "name": "fundingRate",
          "type": "uint256"
        }
      ],
      "name": "UpdateFundingRate",
      "type": "event"
    },
    {
      "anonymous": false,
      "inputs": [
        {
          "indexed": false,
          "internalType": "bytes32",
          "name": "key",
          "type": "bytes32"
        },
        {
          "indexed": false,
          "internalType": "bool",
          "name": "hasProfit",
          "type": "bool"
        },
        {
          "indexed": false,
          "internalType": "uint256",
          "name": "delta",
          "type": "uint256"
        }
      ],
      "name": "UpdatePnl",
      "type": "event"
    },
    {
      "anonymous": false,
      "inputs": [
        {
          "indexed": false,
          "internalType": "bytes32",
          "name": "key",
          "type": "bytes32"
        },
        {
          "indexed": false,
          "internalType": "uint256",
          "name": "size",
          "type": "uint256"
        },
        {
          "indexed": false,
          "internalType": "uint256",
          "name": "collateral",
          "type": "uint256"
        },
        {
          "indexed": false,
          "internalType": "uint256",
          "name": "averagePrice",
          "type": "uint256"
        },
        {
          "indexed": false,
          "internalType": "uint256",
          "name": "entryFundingRate",
          "type": "uint256"
        },
        {
          "indexed": false,
          "internalType": "uint256",
          "name": "reserveAmount",
          "type": "uint256"
        },
        {
          "indexed": false,
          "internalType": "int256",
          "name": "realisedPnl",
          "type": "int256"
        },
        {
          "indexed": false,
          "internalType": "uint256",
          "name": "markPrice",
          "type": "uint256"
        }
      ],
      "name": "UpdatePosition",
      "type": "event"
    },
    {
      "inputs": [],
      "name": "BASIS_POINTS_DIVISOR",
      "outputs": [
        {
          "internalType": "uint256",
          "name": "",
          "type": "uint256"
        }
      ],
      "stateMutability": "view",
      "type": "function"
    },
    {
      "inputs": [],
      "name": "FUNDING_RATE_PRECISION",
      "outputs": [
        {
          "internalType": "uint256",
          "name": "",
          "type": "uint256"
        }
      ],
      "stateMutability": "view",
      "type": "function"
    },
    {
      "inputs": [],
      "name": "MAX_FEE_BASIS_POINTS",
      "outputs": [
        {
          "internalType": "uint256",
          "name": "",
          "type": "uint256"
        }
      ],
      "stateMutability": "view",
      "type": "function"
    },
    {
      "inputs": [],
      "name": "MAX_FUNDING_RATE_FACTOR",
      "outputs": [
        {
          "internalType": "uint256",
          "name": "",
          "type": "uint256"
        }
      ],
      "stateMutability": "view",
      "type": "function"
    },
    {
      "inputs": [],
      "name": "MAX_LIQUIDATION_FEE_USD",
      "outputs": [
        {
          "internalType": "uint256",
          "name": "",
          "type": "uint256"
        }
      ],
      "stateMutability": "view",
      "type": "function"
    },
    {
      "inputs": [],
      "name": "MIN_FUNDING_RATE_INTERVAL",
      "outputs": [
        {
          "internalType": "uint256",
          "name": "",
          "type": "uint256"
        }
      ],
      "stateMutability": "view",
      "type": "function"
    },
    {
      "inputs": [],
      "name": "MIN_LEVERAGE",
      "outputs": [
        {
          "internalType": "uint256",
          "name": "",
          "type": "uint256"
        }
      ],
      "stateMutability": "view",
      "type": "function"
    },
    {
      "inputs": [],
      "name": "PRICE_PRECISION",
      "outputs": [
        {
          "internalType": "uint256",
          "name": "",
          "type": "uint256"
        }
      ],
      "stateMutability": "view",
      "type": "function"
    },
    {
      "inputs": [],
      "name": "USDG_DECIMALS",
      "outputs": [
        {
          "internalType": "uint256",
          "name": "",
          "type": "uint256"
        }
      ],
      "stateMutability": "view",
      "type": "function"
    },
    {
      "inputs": [
        {
          "internalType": "address",
          "name": "_router",
          "type": "address"
        }
      ],
      "name": "addRouter",
      "outputs": [],
      "stateMutability": "nonpayable",
      "type": "function"
    },
    {
      "inputs": [
        {
          "internalType": "uint256",
          "name": "_amount",
          "type": "uint256"
        },
        {
          "internalType": "address",
          "name": "_tokenDiv",
          "type": "address"
        },
        {
          "internalType": "address",
          "name": "_tokenMul",
          "type": "address"
        }
      ],
      "name": "adjustForDecimals",
      "outputs": [
        {
          "internalType": "uint256",
          "name": "",
          "type": "uint256"
        }
      ],
      "stateMutability": "view",
      "type": "function"
    },
    {
      "inputs": [
        {
          "internalType": "uint256",
          "name": "",
          "type": "uint256"
        }
      ],
      "name": "allWhitelistedTokens",
      "outputs": [
        {
          "internalType": "address",
          "name": "",
          "type": "address"
        }
      ],
      "stateMutability": "view",
      "type": "function"
    },
    {
      "inputs": [],
      "name": "allWhitelistedTokensLength",
      "outputs": [
        {
          "internalType": "uint256",
          "name": "",
          "type": "uint256"
        }
      ],
      "stateMutability": "view",
      "type": "function"
    },
    {
      "inputs": [
        {
          "internalType": "address",
          "name": "",
          "type": "address"
        },
        {
          "internalType": "address",
          "name": "",
          "type": "address"
        }
      ],
      "name": "approvedRouters",
      "outputs": [
        {
          "internalType": "bool",
          "name": "",
          "type": "bool"
        }
      ],
      "stateMutability": "view",
      "type": "function"
    },
    {
      "inputs": [
        {
          "internalType": "address",
          "name": "",
          "type": "address"
        }
      ],
      "name": "bufferAmounts",
      "outputs": [
        {
          "internalType": "uint256",
          "name": "",
          "type": "uint256"
        }
      ],
      "stateMutability": "view",
      "type": "function"
    },
    {
      "inputs": [
        {
          "internalType": "address",
          "name": "_token",
          "type": "address"
        },
        {
          "internalType": "address",
          "name": "_receiver",
          "type": "address"
        }
      ],
      "name": "buyUSDG",
      "outputs": [
        {
          "internalType": "uint256",
          "name": "",
          "type": "uint256"
        }
      ],
      "stateMutability": "nonpayable",
      "type": "function"
    },
    {
      "inputs": [
        {
          "internalType": "address",
          "name": "_token",
          "type": "address"
        }
      ],
      "name": "clearTokenConfig",
      "outputs": [],
      "stateMutability": "nonpayable",
      "type": "function"
    },
    {
      "inputs": [
        {
          "internalType": "address",
          "name": "",
          "type": "address"
        }
      ],
      "name": "cumulativeFundingRates",
      "outputs": [
        {
          "internalType": "uint256",
          "name": "",
          "type": "uint256"
        }
      ],
      "stateMutability": "view",
      "type": "function"
    },
    {
      "inputs": [
        {
          "internalType": "address",
          "name": "_account",
          "type": "address"
        },
        {
          "internalType": "address",
          "name": "_collateralToken",
          "type": "address"
        },
        {
          "internalType": "address",
          "name": "_indexToken",
          "type": "address"
        },
        {
          "internalType": "uint256",
          "name": "_collateralDelta",
          "type": "uint256"
        },
        {
          "internalType": "uint256",
          "name": "_sizeDelta",
          "type": "uint256"
        },
        {
          "internalType": "bool",
          "name": "_isLong",
          "type": "bool"
        },
        {
          "internalType": "address",
          "name": "_receiver",
          "type": "address"
        }
      ],
      "name": "decreasePosition",
      "outputs": [
        {
          "internalType": "uint256",
          "name": "",
          "type": "uint256"
        }
      ],
      "stateMutability": "nonpayable",
      "type": "function"
    },
    {
      "inputs": [
        {
          "internalType": "address",
          "name": "_token",
          "type": "address"
        }
      ],
      "name": "directPoolDeposit",
      "outputs": [],
      "stateMutability": "nonpayable",
      "type": "function"
    },
    {
      "inputs": [],
      "name": "errorController",
      "outputs": [
        {
          "internalType": "address",
          "name": "",
          "type": "address"
        }
      ],
      "stateMutability": "view",
      "type": "function"
    },
    {
      "inputs": [
        {
          "internalType": "uint256",
          "name": "",
          "type": "uint256"
        }
      ],
      "name": "errors",
      "outputs": [
        {
          "internalType": "string",
          "name": "",
          "type": "string"
        }
      ],
      "stateMutability": "view",
      "type": "function"
    },
    {
      "inputs": [
        {
          "internalType": "address",
          "name": "",
          "type": "address"
        }
      ],
      "name": "feeReserves",
      "outputs": [
        {
          "internalType": "uint256",
          "name": "",
          "type": "uint256"
        }
      ],
      "stateMutability": "view",
      "type": "function"
    },
    {
      "inputs": [],
      "name": "fundingInterval",
      "outputs": [
        {
          "internalType": "uint256",
          "name": "",
          "type": "uint256"
        }
      ],
      "stateMutability": "view",
      "type": "function"
    },
    {
      "inputs": [],
      "name": "fundingRateFactor",
      "outputs": [
        {
          "internalType": "uint256",
          "name": "",
          "type": "uint256"
        }
      ],
      "stateMutability": "view",
      "type": "function"
    },
    {
      "inputs": [
        {
          "internalType": "address",
          "name": "_indexToken",
          "type": "address"
        },
        {
          "internalType": "uint256",
          "name": "_size",
          "type": "uint256"
        },
        {
          "internalType": "uint256",
          "name": "_averagePrice",
          "type": "uint256"
        },
        {
          "internalType": "bool",
          "name": "_isLong",
          "type": "bool"
        },
        {
          "internalType": "uint256",
          "name": "_lastIncreasedTime",
          "type": "uint256"
        }
      ],
      "name": "getDelta",
      "outputs": [
        {
          "internalType": "bool",
          "name": "",
          "type": "bool"
        },
        {
          "internalType": "uint256",
          "name": "",
          "type": "uint256"
        }
      ],
      "stateMutability": "view",
      "type": "function"
    },
    {
      "inputs": [
        {
          "internalType": "address",
          "name": "_collateralToken",
          "type": "address"
        },
        {
          "internalType": "address",
          "name": "_indexToken",
          "type": "address"
        },
        {
          "internalType": "bool",
          "name": "_isLong",
          "type": "bool"
        }
      ],
      "name": "getEntryFundingRate",
      "outputs": [
        {
          "internalType": "uint256",
          "name": "",
          "type": "uint256"
        }
      ],
      "stateMutability": "view",
      "type": "function"
    },
    {
      "inputs": [
        {
          "internalType": "address",
          "name": "_token",
          "type": "address"
        },
        {
          "internalType": "uint256",
          "name": "_usdgDelta",
          "type": "uint256"
        },
        {
          "internalType": "uint256",
          "name": "_feeBasisPoints",
          "type": "uint256"
        },
        {
          "internalType": "uint256",
          "name": "_taxBasisPoints",
          "type": "uint256"
        },
        {
          "internalType": "bool",
          "name": "_increment",
          "type": "bool"
        }
      ],
      "name": "getFeeBasisPoints",
      "outputs": [
        {
          "internalType": "uint256",
          "name": "",
          "type": "uint256"
        }
      ],
      "stateMutability": "view",
      "type": "function"
    },
    {
      "inputs": [
        {
          "internalType": "address",
          "name": "_account",
          "type": "address"
        },
        {
          "internalType": "address",
          "name": "_collateralToken",
          "type": "address"
        },
        {
          "internalType": "address",
          "name": "_indexToken",
          "type": "address"
        },
        {
          "internalType": "bool",
          "name": "_isLong",
          "type": "bool"
        },
        {
          "internalType": "uint256",
          "name": "_size",
          "type": "uint256"
        },
        {
          "internalType": "uint256",
          "name": "_entryFundingRate",
          "type": "uint256"
        }
      ],
      "name": "getFundingFee",
      "outputs": [
        {
          "internalType": "uint256",
          "name": "",
          "type": "uint256"
        }
      ],
      "stateMutability": "view",
      "type": "function"
    },
    {
      "inputs": [
        {
          "internalType": "address",
          "name": "_token",
          "type": "address"
        }
      ],
      "name": "getGlobalShortDelta",
      "outputs": [
        {
          "internalType": "bool",
          "name": "",
          "type": "bool"
        },
        {
          "internalType": "uint256",
          "name": "",
          "type": "uint256"
        }
      ],
      "stateMutability": "view",
      "type": "function"
    },
    {
      "inputs": [
        {
          "internalType": "address",
          "name": "_token",
          "type": "address"
        }
      ],
      "name": "getMaxPrice",
      "outputs": [
        {
          "internalType": "uint256",
          "name": "",
          "type": "uint256"
        }
      ],
      "stateMutability": "view",
      "type": "function"
    },
    {
      "inputs": [
        {
          "internalType": "address",
          "name": "_token",
          "type": "address"
        }
      ],
      "name": "getMinPrice",
      "outputs": [
        {
          "internalType": "uint256",
          "name": "",
          "type": "uint256"
        }
      ],
      "stateMutability": "view",
      "type": "function"
    },
    {
      "inputs": [
        {
          "internalType": "address",
          "name": "_indexToken",
          "type": "address"
        },
        {
          "internalType": "uint256",
          "name": "_size",
          "type": "uint256"
        },
        {
          "internalType": "uint256",
          "name": "_averagePrice",
          "type": "uint256"
        },
        {
          "internalType": "bool",
          "name": "_isLong",
          "type": "bool"
        },
        {
          "internalType": "uint256",
          "name": "_nextPrice",
          "type": "uint256"
        },
        {
          "internalType": "uint256",
          "name": "_sizeDelta",
          "type": "uint256"
        },
        {
          "internalType": "uint256",
          "name": "_lastIncreasedTime",
          "type": "uint256"
        }
      ],
      "name": "getNextAveragePrice",
      "outputs": [
        {
          "internalType": "uint256",
          "name": "",
          "type": "uint256"
        }
      ],
      "stateMutability": "view",
      "type": "function"
    },
    {
      "inputs": [
        {
          "internalType": "address",
          "name": "_token",
          "type": "address"
        }
      ],
      "name": "getNextFundingRate",
      "outputs": [
        {
          "internalType": "uint256",
          "name": "",
          "type": "uint256"
        }
      ],
      "stateMutability": "view",
      "type": "function"
    },
    {
      "inputs": [
        {
          "internalType": "address",
          "name": "_indexToken",
          "type": "address"
        },
        {
          "internalType": "uint256",
          "name": "_nextPrice",
          "type": "uint256"
        },
        {
          "internalType": "uint256",
          "name": "_sizeDelta",
          "type": "uint256"
        }
      ],
      "name": "getNextGlobalShortAveragePrice",
      "outputs": [
        {
          "internalType": "uint256",
          "name": "",
          "type": "uint256"
        }
      ],
      "stateMutability": "view",
      "type": "function"
    },
    {
      "inputs": [
        {
          "internalType": "address",
          "name": "_account",
          "type": "address"
        },
        {
          "internalType": "address",
          "name": "_collateralToken",
          "type": "address"
        },
        {
          "internalType": "address",
          "name": "_indexToken",
          "type": "address"
        },
        {
          "internalType": "bool",
          "name": "_isLong",
          "type": "bool"
        }
      ],
      "name": "getPosition",
      "outputs": [
        {
          "internalType": "uint256",
          "name": "",
          "type": "uint256"
        },
        {
          "internalType": "uint256",
          "name": "",
          "type": "uint256"
        },
        {
          "internalType": "uint256",
          "name": "",
          "type": "uint256"
        },
        {
          "internalType": "uint256",
          "name": "",
          "type": "uint256"
        },
        {
          "internalType": "uint256",
          "name": "",
          "type": "uint256"
        },
        {
          "internalType": "uint256",
          "name": "",
          "type": "uint256"
        },
        {
          "internalType": "bool",
          "name": "",
          "type": "bool"
        },
        {
          "internalType": "uint256",
          "name": "",
          "type": "uint256"
        }
      ],
      "stateMutability": "view",
      "type": "function"
    },
    {
      "inputs": [
        {
          "internalType": "address",
          "name": "_account",
          "type": "address"
        },
        {
          "internalType": "address",
          "name": "_collateralToken",
          "type": "address"
        },
        {
          "internalType": "address",
          "name": "_indexToken",
          "type": "address"
        },
        {
          "internalType": "bool",
          "name": "_isLong",
          "type": "bool"
        }
      ],
      "name": "getPositionDelta",
      "outputs": [
        {
          "internalType": "bool",
          "name": "",
          "type": "bool"
        },
        {
          "internalType": "uint256",
          "name": "",
          "type": "uint256"
        }
      ],
      "stateMutability": "view",
      "type": "function"
    },
    {
      "inputs": [
        {
          "internalType": "address",
          "name": "_account",
          "type": "address"
        },
        {
          "internalType": "address",
          "name": "_collateralToken",
          "type": "address"
        },
        {
          "internalType": "address",
          "name": "_indexToken",
          "type": "address"
        },
        {
          "internalType": "bool",
          "name": "_isLong",
          "type": "bool"
        },
        {
          "internalType": "uint256",
          "name": "_sizeDelta",
          "type": "uint256"
        }
      ],
      "name": "getPositionFee",
      "outputs": [
        {
          "internalType": "uint256",
          "name": "",
          "type": "uint256"
        }
      ],
      "stateMutability": "view",
      "type": "function"
    },
    {
      "inputs": [
        {
          "internalType": "address",
          "name": "_account",
          "type": "address"
        },
        {
          "internalType": "address",
          "name": "_collateralToken",
          "type": "address"
        },
        {
          "internalType": "address",
          "name": "_indexToken",
          "type": "address"
        },
        {
          "internalType": "bool",
          "name": "_isLong",
          "type": "bool"
        }
      ],
      "name": "getPositionKey",
      "outputs": [
        {
          "internalType": "bytes32",
          "name": "",
          "type": "bytes32"
        }
      ],
      "stateMutability": "pure",
      "type": "function"
    },
    {
      "inputs": [
        {
          "internalType": "address",
          "name": "_account",
          "type": "address"
        },
        {
          "internalType": "address",
          "name": "_collateralToken",
          "type": "address"
        },
        {
          "internalType": "address",
          "name": "_indexToken",
          "type": "address"
        },
        {
          "internalType": "bool",
          "name": "_isLong",
          "type": "bool"
        }
      ],
      "name": "getPositionLeverage",
      "outputs": [
        {
          "internalType": "uint256",
          "name": "",
          "type": "uint256"
        }
      ],
      "stateMutability": "view",
      "type": "function"
    },
    {
      "inputs": [
        {
          "internalType": "address",
          "name": "_token",
          "type": "address"
        },
        {
          "internalType": "uint256",
          "name": "_usdgAmount",
          "type": "uint256"
        }
      ],
      "name": "getRedemptionAmount",
      "outputs": [
        {
          "internalType": "uint256",
          "name": "",
          "type": "uint256"
        }
      ],
      "stateMutability": "view",
      "type": "function"
    },
    {
      "inputs": [
        {
          "internalType": "address",
          "name": "_token",
          "type": "address"
        }
      ],
      "name": "getRedemptionCollateral",
      "outputs": [
        {
          "internalType": "uint256",
          "name": "",
          "type": "uint256"
        }
      ],
      "stateMutability": "view",
      "type": "function"
    },
    {
      "inputs": [
        {
          "internalType": "address",
          "name": "_token",
          "type": "address"
        }
      ],
      "name": "getRedemptionCollateralUsd",
      "outputs": [
        {
          "internalType": "uint256",
          "name": "",
          "type": "uint256"
        }
      ],
      "stateMutability": "view",
      "type": "function"
    },
    {
      "inputs": [
        {
          "internalType": "address",
          "name": "_token",
          "type": "address"
        }
      ],
      "name": "getTargetUsdgAmount",
      "outputs": [
        {
          "internalType": "uint256",
          "name": "",
          "type": "uint256"
        }
      ],
      "stateMutability": "view",
      "type": "function"
    },
    {
      "inputs": [
        {
          "internalType": "address",
          "name": "_token",
          "type": "address"
        }
      ],
      "name": "getUtilisation",
      "outputs": [
        {
          "internalType": "uint256",
          "name": "",
          "type": "uint256"
        }
      ],
      "stateMutability": "view",
      "type": "function"
    },
    {
      "inputs": [
        {
          "internalType": "address",
          "name": "",
          "type": "address"
        }
      ],
      "name": "globalShortAveragePrices",
      "outputs": [
        {
          "internalType": "uint256",
          "name": "",
          "type": "uint256"
        }
      ],
      "stateMutability": "view",
      "type": "function"
    },
    {
      "inputs": [
        {
          "internalType": "address",
          "name": "",
          "type": "address"
        }
      ],
      "name": "globalShortSizes",
      "outputs": [
        {
          "internalType": "uint256",
          "name": "",
          "type": "uint256"
        }
      ],
      "stateMutability": "view",
      "type": "function"
    },
    {
      "inputs": [],
      "name": "gov",
      "outputs": [
        {
          "internalType": "address",
          "name": "",
          "type": "address"
        }
      ],
      "stateMutability": "view",
      "type": "function"
    },
    {
      "inputs": [
        {
          "internalType": "address",
          "name": "",
          "type": "address"
        }
      ],
      "name": "guaranteedUsd",
      "outputs": [
        {
          "internalType": "uint256",
          "name": "",
          "type": "uint256"
        }
      ],
      "stateMutability": "view",
      "type": "function"
    },
    {
      "inputs": [],
      "name": "hasDynamicFees",
      "outputs": [
        {
          "internalType": "bool",
          "name": "",
          "type": "bool"
        }
      ],
      "stateMutability": "view",
      "type": "function"
    },
    {
      "inputs": [],
      "name": "inManagerMode",
      "outputs": [
        {
          "internalType": "bool",
          "name": "",
          "type": "bool"
        }
      ],
      "stateMutability": "view",
      "type": "function"
    },
    {
      "inputs": [],
      "name": "inPrivateLiquidationMode",
      "outputs": [
        {
          "internalType": "bool",
          "name": "",
          "type": "bool"
        }
      ],
      "stateMutability": "view",
      "type": "function"
    },
    {
      "inputs": [
        {
          "internalType": "address",
          "name": "_account",
          "type": "address"
        },
        {
          "internalType": "address",
          "name": "_collateralToken",
          "type": "address"
        },
        {
          "internalType": "address",
          "name": "_indexToken",
          "type": "address"
        },
        {
          "internalType": "uint256",
          "name": "_sizeDelta",
          "type": "uint256"
        },
        {
          "internalType": "bool",
          "name": "_isLong",
          "type": "bool"
        }
      ],
      "name": "increasePosition",
      "outputs": [],
      "stateMutability": "nonpayable",
      "type": "function"
    },
    {
      "inputs": [
        {
          "internalType": "address",
          "name": "_router",
          "type": "address"
        },
        {
          "internalType": "address",
          "name": "_usdg",
          "type": "address"
        },
        {
          "internalType": "address",
          "name": "_priceFeed",
          "type": "address"
        },
        {
          "internalType": "uint256",
          "name": "_liquidationFeeUsd",
          "type": "uint256"
        },
        {
          "internalType": "uint256",
          "name": "_fundingRateFactor",
          "type": "uint256"
        },
        {
          "internalType": "uint256",
          "name": "_stableFundingRateFactor",
          "type": "uint256"
        }
      ],
      "name": "initialize",
      "outputs": [],
      "stateMutability": "nonpayable",
      "type": "function"
    },
    {
      "inputs": [],
      "name": "isInitialized",
      "outputs": [
        {
          "internalType": "bool",
          "name": "",
          "type": "bool"
        }
      ],
      "stateMutability": "view",
      "type": "function"
    },
    {
      "inputs": [],
      "name": "isLeverageEnabled",
      "outputs": [
        {
          "internalType": "bool",
          "name": "",
          "type": "bool"
        }
      ],
      "stateMutability": "view",
      "type": "function"
    },
    {
      "inputs": [
        {
          "internalType": "address",
          "name": "",
          "type": "address"
        }
      ],
      "name": "isLiquidator",
      "outputs": [
        {
          "internalType": "bool",
          "name": "",
          "type": "bool"
        }
      ],
      "stateMutability": "view",
      "type": "function"
    },
    {
      "inputs": [
        {
          "internalType": "address",
          "name": "",
          "type": "address"
        }
      ],
      "name": "isManager",
      "outputs": [
        {
          "internalType": "bool",
          "name": "",
          "type": "bool"
        }
      ],
      "stateMutability": "view",
      "type": "function"
    },
    {
      "inputs": [
        {
          "internalType": "address",
          "name": "",
          "type": "address"
        }
      ],
      "name": "lastFundingTimes",
      "outputs": [
        {
          "internalType": "uint256",
          "name": "",
          "type": "uint256"
        }
      ],
      "stateMutability": "view",
      "type": "function"
    },
    {
      "inputs": [
        {
          "internalType": "address",
          "name": "_account",
          "type": "address"
        },
        {
          "internalType": "address",
          "name": "_collateralToken",
          "type": "address"
        },
        {
          "internalType": "address",
          "name": "_indexToken",
          "type": "address"
        },
        {
          "internalType": "bool",
          "name": "_isLong",
          "type": "bool"
        },
        {
          "internalType": "address",
          "name": "_feeReceiver",
          "type": "address"
        }
      ],
      "name": "liquidatePosition",
      "outputs": [],
      "stateMutability": "nonpayable",
      "type": "function"
    },
    {
      "inputs": [],
      "name": "liquidationFeeUsd",
      "outputs": [
        {
          "internalType": "uint256",
          "name": "",
          "type": "uint256"
        }
      ],
      "stateMutability": "view",
      "type": "function"
    },
    {
      "inputs": [
        {
          "internalType": "address",
          "name": "",
          "type": "address"
        }
      ],
      "name": "longOpenInterest",
      "outputs": [
        {
          "internalType": "uint256",
          "name": "",
          "type": "uint256"
        }
      ],
      "stateMutability": "view",
      "type": "function"
    },
    {
      "inputs": [],
      "name": "marginFeeBasisPoints",
      "outputs": [
        {
          "internalType": "uint256",
          "name": "",
          "type": "uint256"
        }
      ],
      "stateMutability": "view",
      "type": "function"
    },
    {
      "inputs": [],
      "name": "maxGasPrice",
      "outputs": [
        {
          "internalType": "uint256",
          "name": "",
          "type": "uint256"
        }
      ],
      "stateMutability": "view",
      "type": "function"
    },
    {
      "inputs": [
        {
          "internalType": "address",
          "name": "",
          "type": "address"
        }
      ],
      "name": "maxGlobalShortSizes",
      "outputs": [
        {
          "internalType": "uint256",
          "name": "",
          "type": "uint256"
        }
      ],
      "stateMutability": "view",
      "type": "function"
    },
    {
      "inputs": [],
      "name": "maxLeverage",
      "outputs": [
        {
          "internalType": "uint256",
          "name": "",
          "type": "uint256"
        }
      ],
      "stateMutability": "view",
      "type": "function"
    },
    {
      "inputs": [
        {
          "internalType": "address",
          "name": "",
          "type": "address"
        }
      ],
      "name": "maxLongOpenInterest",
      "outputs": [
        {
          "internalType": "uint256",
          "name": "",
          "type": "uint256"
        }
      ],
      "stateMutability": "view",
      "type": "function"
    },
    {
      "inputs": [
        {
          "internalType": "address",
          "name": "",
          "type": "address"
        }
      ],
      "name": "maxShortOpenInterest",
      "outputs": [
        {
          "internalType": "uint256",
          "name": "",
          "type": "uint256"
        }
      ],
      "stateMutability": "view",
      "type": "function"
    },
    {
      "inputs": [
        {
          "internalType": "address",
          "name": "",
          "type": "address"
        }
      ],
      "name": "maxUsdgAmounts",
      "outputs": [
        {
          "internalType": "uint256",
          "name": "",
          "type": "uint256"
        }
      ],
      "stateMutability": "view",
      "type": "function"
    },
    {
      "inputs": [
        {
          "internalType": "address",
          "name": "",
          "type": "address"
        }
      ],
      "name": "minProfitBasisPoints",
      "outputs": [
        {
          "internalType": "uint256",
          "name": "",
          "type": "uint256"
        }
      ],
      "stateMutability": "view",
      "type": "function"
    },
    {
      "inputs": [],
      "name": "minProfitTime",
      "outputs": [
        {
          "internalType": "uint256",
          "name": "",
          "type": "uint256"
        }
      ],
      "stateMutability": "view",
      "type": "function"
    },
    {
      "inputs": [],
      "name": "mintBurnFeeBasisPoints",
      "outputs": [
        {
          "internalType": "uint256",
          "name": "",
          "type": "uint256"
        }
      ],
      "stateMutability": "view",
      "type": "function"
    },
    {
      "inputs": [
        {
          "internalType": "address",
          "name": "",
          "type": "address"
        }
      ],
      "name": "poolAmounts",
      "outputs": [
        {
          "internalType": "uint256",
          "name": "",
          "type": "uint256"
        }
      ],
      "stateMutability": "view",
      "type": "function"
    },
    {
      "inputs": [
        {
          "internalType": "bytes32",
          "name": "",
          "type": "bytes32"
        }
      ],
      "name": "positions",
      "outputs": [
        {
          "internalType": "uint256",
          "name": "size",
          "type": "uint256"
        },
        {
          "internalType": "uint256",
          "name": "collateral",
          "type": "uint256"
        },
        {
          "internalType": "uint256",
          "name": "averagePrice",
          "type": "uint256"
        },
        {
          "internalType": "uint256",
          "name": "entryFundingRate",
          "type": "uint256"
        },
        {
          "internalType": "uint256",
          "name": "reserveAmount",
          "type": "uint256"
        },
        {
          "internalType": "int256",
          "name": "realisedPnl",
          "type": "int256"
        },
        {
          "internalType": "uint256",
          "name": "lastIncreasedTime",
          "type": "uint256"
        }
      ],
      "stateMutability": "view",
      "type": "function"
    },
    {
      "inputs": [],
      "name": "priceFeed",
      "outputs": [
        {
          "internalType": "address",
          "name": "",
          "type": "address"
        }
      ],
      "stateMutability": "view",
      "type": "function"
    },
    {
      "inputs": [
        {
          "internalType": "address",
          "name": "_router",
          "type": "address"
        }
      ],
      "name": "removeRouter",
      "outputs": [],
      "stateMutability": "nonpayable",
      "type": "function"
    },
    {
      "inputs": [
        {
          "internalType": "address",
          "name": "",
          "type": "address"
        }
      ],
      "name": "reservedAmounts",
      "outputs": [
        {
          "internalType": "uint256",
          "name": "",
          "type": "uint256"
        }
      ],
      "stateMutability": "view",
      "type": "function"
    },
    {
      "inputs": [],
      "name": "router",
      "outputs": [
        {
          "internalType": "address",
          "name": "",
          "type": "address"
        }
      ],
      "stateMutability": "view",
      "type": "function"
    },
    {
      "inputs": [
        {
          "internalType": "address",
          "name": "_token",
          "type": "address"
        },
        {
          "internalType": "address",
          "name": "_receiver",
          "type": "address"
        }
      ],
      "name": "sellUSDG",
      "outputs": [
        {
          "internalType": "uint256",
          "name": "",
          "type": "uint256"
        }
      ],
      "stateMutability": "nonpayable",
      "type": "function"
    },
    {
      "inputs": [
        {
          "internalType": "address",
          "name": "_token",
          "type": "address"
        },
        {
          "internalType": "uint256",
          "name": "_amount",
          "type": "uint256"
        }
      ],
      "name": "setBufferAmount",
      "outputs": [],
      "stateMutability": "nonpayable",
      "type": "function"
    },
    {
      "inputs": [
        {
          "internalType": "uint256",
          "name": "_errorCode",
          "type": "uint256"
        },
        {
          "internalType": "string",
          "name": "_error",
          "type": "string"
        }
      ],
      "name": "setError",
      "outputs": [],
      "stateMutability": "nonpayable",
      "type": "function"
    },
    {
      "inputs": [
        {
          "internalType": "address",
          "name": "_errorController",
          "type": "address"
        }
      ],
      "name": "setErrorController",
      "outputs": [],
      "stateMutability": "nonpayable",
      "type": "function"
    },
    {
      "inputs": [
        {
          "internalType": "uint256",
          "name": "_taxBasisPoints",
          "type": "uint256"
        },
        {
          "internalType": "uint256",
          "name": "_stableTaxBasisPoints",
          "type": "uint256"
        },
        {
          "internalType": "uint256",
          "name": "_mintBurnFeeBasisPoints",
          "type": "uint256"
        },
        {
          "internalType": "uint256",
          "name": "_swapFeeBasisPoints",
          "type": "uint256"
        },
        {
          "internalType": "uint256",
          "name": "_stableSwapFeeBasisPoints",
          "type": "uint256"
        },
        {
          "internalType": "uint256",
          "name": "_marginFeeBasisPoints",
          "type": "uint256"
        },
        {
          "internalType": "uint256",
          "name": "_liquidationFeeUsd",
          "type": "uint256"
        },
        {
          "internalType": "uint256",
          "name": "_minProfitTime",
          "type": "uint256"
        },
        {
          "internalType": "bool",
          "name": "_hasDynamicFees",
          "type": "bool"
        }
      ],
      "name": "setFees",
      "outputs": [],
      "stateMutability": "nonpayable",
      "type": "function"
    },
    {
      "inputs": [
        {
          "internalType": "uint256",
          "name": "_fundingInterval",
          "type": "uint256"
        },
        {
          "internalType": "uint256",
          "name": "_fundingRateFactor",
          "type": "uint256"
        },
        {
          "internalType": "uint256",
          "name": "_stableFundingRateFactor",
          "type": "uint256"
        }
      ],
      "name": "setFundingRate",
      "outputs": [],
      "stateMutability": "nonpayable",
      "type": "function"
    },
    {
      "inputs": [
        {
          "internalType": "address",
          "name": "_gov",
          "type": "address"
        }
      ],
      "name": "setGov",
      "outputs": [],
      "stateMutability": "nonpayable",
      "type": "function"
    },
    {
      "inputs": [
        {
          "internalType": "bool",
          "name": "_inManagerMode",
          "type": "bool"
        }
      ],
      "name": "setInManagerMode",
      "outputs": [],
      "stateMutability": "nonpayable",
      "type": "function"
    },
    {
      "inputs": [
        {
          "internalType": "bool",
          "name": "_inPrivateLiquidationMode",
          "type": "bool"
        }
      ],
      "name": "setInPrivateLiquidationMode",
      "outputs": [],
      "stateMutability": "nonpayable",
      "type": "function"
    },
    {
      "inputs": [
        {
          "internalType": "bool",
          "name": "_isLeverageEnabled",
          "type": "bool"
        }
      ],
      "name": "setIsLeverageEnabled",
      "outputs": [],
      "stateMutability": "nonpayable",
      "type": "function"
    },
    {
      "inputs": [
        {
          "internalType": "address",
          "name": "_liquidator",
          "type": "address"
        },
        {
          "internalType": "bool",
          "name": "_isActive",
          "type": "bool"
        }
      ],
      "name": "setLiquidator",
      "outputs": [],
      "stateMutability": "nonpayable",
      "type": "function"
    },
    {
      "inputs": [
        {
          "internalType": "address",
          "name": "_manager",
          "type": "address"
        },
        {
          "internalType": "bool",
          "name": "_isManager",
          "type": "bool"
        }
      ],
      "name": "setManager",
      "outputs": [],
      "stateMutability": "nonpayable",
      "type": "function"
    },
    {
      "inputs": [
        {
          "internalType": "uint256",
          "name": "_maxGasPrice",
          "type": "uint256"
        }
      ],
      "name": "setMaxGasPrice",
      "outputs": [],
      "stateMutability": "nonpayable",
      "type": "function"
    },
    {
      "inputs": [
        {
          "internalType": "address",
          "name": "_token",
          "type": "address"
        },
        {
          "internalType": "uint256",
          "name": "_amount",
          "type": "uint256"
        }
      ],
      "name": "setMaxGlobalShortSize",
      "outputs": [],
      "stateMutability": "nonpayable",
      "type": "function"
    },
    {
      "inputs": [
        {
          "internalType": "uint256",
          "name": "_maxLeverage",
          "type": "uint256"
        }
      ],
      "name": "setMaxLeverage",
      "outputs": [],
      "stateMutability": "nonpayable",
      "type": "function"
    },
    {
      "inputs": [
        {
          "internalType": "address",
          "name": "_priceFeed",
          "type": "address"
        }
      ],
      "name": "setPriceFeed",
      "outputs": [],
      "stateMutability": "nonpayable",
      "type": "function"
    },
    {
      "inputs": [
        {
          "internalType": "address",
          "name": "_token",
          "type": "address"
        },
        {
          "internalType": "uint256",
          "name": "_tokenDecimals",
          "type": "uint256"
        },
        {
          "internalType": "uint256",
          "name": "_tokenWeight",
          "type": "uint256"
        },
        {
          "internalType": "uint256",
          "name": "_minProfitBps",
          "type": "uint256"
        },
        {
          "internalType": "uint256",
          "name": "_maxUsdgAmount",
          "type": "uint256"
        },
        {
          "internalType": "uint256",
          "name": "_maxLongOiAmount",
          "type": "uint256"
        },
        {
          "internalType": "uint256",
          "name": "_maxShortOiAmount",
          "type": "uint256"
        },
        {
          "internalType": "bool",
          "name": "_isStable",
          "type": "bool"
        },
        {
          "internalType": "bool",
          "name": "_isShortable",
          "type": "bool"
        }
      ],
      "name": "setTokenConfig",
      "outputs": [],
      "stateMutability": "nonpayable",
      "type": "function"
    },
    {
      "inputs": [
        {
          "internalType": "address",
          "name": "_token",
          "type": "address"
        },
        {
          "internalType": "uint256",
          "name": "_amount",
          "type": "uint256"
        }
      ],
      "name": "setUsdgAmount",
      "outputs": [],
      "stateMutability": "nonpayable",
      "type": "function"
    },
    {
      "inputs": [
        {
          "internalType": "contract IVaultUtils",
          "name": "_vaultUtils",
          "type": "address"
        }
      ],
      "name": "setVaultUtils",
      "outputs": [],
      "stateMutability": "nonpayable",
      "type": "function"
    },
    {
      "inputs": [
        {
          "internalType": "address",
          "name": "",
          "type": "address"
        }
      ],
      "name": "shortOpenInterest",
      "outputs": [
        {
          "internalType": "uint256",
          "name": "",
          "type": "uint256"
        }
      ],
      "stateMutability": "view",
      "type": "function"
    },
    {
      "inputs": [
        {
          "internalType": "address",
          "name": "",
          "type": "address"
        }
      ],
      "name": "shortableTokens",
      "outputs": [
        {
          "internalType": "bool",
          "name": "",
          "type": "bool"
        }
      ],
      "stateMutability": "view",
      "type": "function"
    },
    {
      "inputs": [],
      "name": "stableFundingRateFactor",
      "outputs": [
        {
          "internalType": "uint256",
          "name": "",
          "type": "uint256"
        }
      ],
      "stateMutability": "view",
      "type": "function"
    },
    {
      "inputs": [],
      "name": "stableSwapFeeBasisPoints",
      "outputs": [
        {
          "internalType": "uint256",
          "name": "",
          "type": "uint256"
        }
      ],
      "stateMutability": "view",
      "type": "function"
    },
    {
      "inputs": [],
      "name": "stableTaxBasisPoints",
      "outputs": [
        {
          "internalType": "uint256",
          "name": "",
          "type": "uint256"
        }
      ],
      "stateMutability": "view",
      "type": "function"
    },
    {
      "inputs": [
        {
          "internalType": "address",
          "name": "",
          "type": "address"
        }
      ],
      "name": "stableTokens",
      "outputs": [
        {
          "internalType": "bool",
          "name": "",
          "type": "bool"
        }
      ],
      "stateMutability": "view",
      "type": "function"
    },
    {
      "inputs": [
        {
          "internalType": "address",
          "name": "_tokenIn",
          "type": "address"
        },
        {
          "internalType": "address",
          "name": "_tokenOut",
          "type": "address"
        },
        {
          "internalType": "address",
          "name": "_receiver",
          "type": "address"
        }
      ],
      "name": "swap",
      "outputs": [
        {
          "internalType": "uint256",
          "name": "",
          "type": "uint256"
        }
      ],
      "stateMutability": "nonpayable",
      "type": "function"
    },
    {
      "inputs": [],
      "name": "swapFeeBasisPoints",
      "outputs": [
        {
          "internalType": "uint256",
          "name": "",
          "type": "uint256"
        }
      ],
      "stateMutability": "view",
      "type": "function"
    },
    {
      "inputs": [],
      "name": "taxBasisPoints",
      "outputs": [
        {
          "internalType": "uint256",
          "name": "",
          "type": "uint256"
        }
      ],
      "stateMutability": "view",
      "type": "function"
    },
    {
      "inputs": [
        {
          "internalType": "address",
          "name": "",
          "type": "address"
        }
      ],
      "name": "tokenBalances",
      "outputs": [
        {
          "internalType": "uint256",
          "name": "",
          "type": "uint256"
        }
      ],
      "stateMutability": "view",
      "type": "function"
    },
    {
      "inputs": [
        {
          "internalType": "address",
          "name": "",
          "type": "address"
        }
      ],
      "name": "tokenDecimals",
      "outputs": [
        {
          "internalType": "uint256",
          "name": "",
          "type": "uint256"
        }
      ],
      "stateMutability": "view",
      "type": "function"
    },
    {
      "inputs": [
        {
          "internalType": "address",
          "name": "_token",
          "type": "address"
        },
        {
          "internalType": "uint256",
          "name": "_tokenAmount",
          "type": "uint256"
        }
      ],
      "name": "tokenToUsdMin",
      "outputs": [
        {
          "internalType": "uint256",
          "name": "",
          "type": "uint256"
        }
      ],
      "stateMutability": "view",
      "type": "function"
    },
    {
      "inputs": [
        {
          "internalType": "address",
          "name": "",
          "type": "address"
        }
      ],
      "name": "tokenWeights",
      "outputs": [
        {
          "internalType": "uint256",
          "name": "",
          "type": "uint256"
        }
      ],
      "stateMutability": "view",
      "type": "function"
    },
    {
      "inputs": [],
      "name": "totalTokenWeights",
      "outputs": [
        {
          "internalType": "uint256",
          "name": "",
          "type": "uint256"
        }
      ],
      "stateMutability": "view",
      "type": "function"
    },
    {
      "inputs": [
        {
          "internalType": "address",
          "name": "_collateralToken",
          "type": "address"
        },
        {
          "internalType": "address",
          "name": "_indexToken",
          "type": "address"
        }
      ],
      "name": "updateCumulativeFundingRate",
      "outputs": [],
      "stateMutability": "nonpayable",
      "type": "function"
    },
    {
      "inputs": [
        {
          "internalType": "address",
          "name": "_newVault",
          "type": "address"
        },
        {
          "internalType": "address",
          "name": "_token",
          "type": "address"
        },
        {
          "internalType": "uint256",
          "name": "_amount",
          "type": "uint256"
        }
      ],
      "name": "upgradeVault",
      "outputs": [],
      "stateMutability": "nonpayable",
      "type": "function"
    },
    {
      "inputs": [
        {
          "internalType": "address",
          "name": "_token",
          "type": "address"
        },
        {
          "internalType": "uint256",
          "name": "_usdAmount",
          "type": "uint256"
        },
        {
          "internalType": "uint256",
          "name": "_price",
          "type": "uint256"
        }
      ],
      "name": "usdToToken",
      "outputs": [
        {
          "internalType": "uint256",
          "name": "",
          "type": "uint256"
        }
      ],
      "stateMutability": "view",
      "type": "function"
    },
    {
      "inputs": [
        {
          "internalType": "address",
          "name": "_token",
          "type": "address"
        },
        {
          "internalType": "uint256",
          "name": "_usdAmount",
          "type": "uint256"
        }
      ],
      "name": "usdToTokenMax",
      "outputs": [
        {
          "internalType": "uint256",
          "name": "",
          "type": "uint256"
        }
      ],
      "stateMutability": "view",
      "type": "function"
    },
    {
      "inputs": [
        {
          "internalType": "address",
          "name": "_token",
          "type": "address"
        },
        {
          "internalType": "uint256",
          "name": "_usdAmount",
          "type": "uint256"
        }
      ],
      "name": "usdToTokenMin",
      "outputs": [
        {
          "internalType": "uint256",
          "name": "",
          "type": "uint256"
        }
      ],
      "stateMutability": "view",
      "type": "function"
    },
    {
      "inputs": [],
      "name": "usdg",
      "outputs": [
        {
          "internalType": "address",
          "name": "",
          "type": "address"
        }
      ],
      "stateMutability": "view",
      "type": "function"
    },
    {
      "inputs": [
        {
          "internalType": "address",
          "name": "",
          "type": "address"
        }
      ],
      "name": "usdgAmounts",
      "outputs": [
        {
          "internalType": "uint256",
          "name": "",
          "type": "uint256"
        }
      ],
      "stateMutability": "view",
      "type": "function"
    },
    {
      "inputs": [
        {
          "internalType": "address",
          "name": "_account",
          "type": "address"
        },
        {
          "internalType": "address",
          "name": "_collateralToken",
          "type": "address"
        },
        {
          "internalType": "address",
          "name": "_indexToken",
          "type": "address"
        },
        {
          "internalType": "bool",
          "name": "_isLong",
          "type": "bool"
        },
        {
          "internalType": "bool",
          "name": "_raise",
          "type": "bool"
        }
      ],
      "name": "validateLiquidation",
      "outputs": [
        {
          "internalType": "uint256",
          "name": "",
          "type": "uint256"
        },
        {
          "internalType": "uint256",
          "name": "",
          "type": "uint256"
        }
      ],
      "stateMutability": "view",
      "type": "function"
    },
    {
      "inputs": [],
      "name": "vaultUtils",
      "outputs": [
        {
          "internalType": "contract IVaultUtils",
          "name": "",
          "type": "address"
        }
      ],
      "stateMutability": "view",
      "type": "function"
    },
    {
      "inputs": [],
      "name": "whitelistedTokenCount",
      "outputs": [
        {
          "internalType": "uint256",
          "name": "",
          "type": "uint256"
        }
      ],
      "stateMutability": "view",
      "type": "function"
    },
    {
      "inputs": [
        {
          "internalType": "address",
          "name": "",
          "type": "address"
        }
      ],
      "name": "whitelistedTokens",
      "outputs": [
        {
          "internalType": "bool",
          "name": "",
          "type": "bool"
        }
      ],
      "stateMutability": "view",
      "type": "function"
    },
    {
      "inputs": [
        {
          "internalType": "address",
          "name": "_token",
          "type": "address"
        },
        {
          "internalType": "address",
          "name": "_receiver",
          "type": "address"
        }
      ],
      "name": "withdrawFees",
      "outputs": [
        {
          "internalType": "uint256",
          "name": "",
          "type": "uint256"
        }
      ],
      "stateMutability": "nonpayable",
      "type": "function"
    }
  ],
  "bytecode": "0x608060405234801561001057600080fd5b50615f3980620000216000396000f3fe608060405234801561001057600080fd5b50600436106105795760003560e01c8063870d917c116102d9578063870d917c14610e7357806388b1fbdf14610e7b5780638a27d46814610ea15780638a39735a146105fa5780638a78daa814610eca5780638a7976cd14610ef05780638ee573ac14610f165780638f7b840414610f3c5780639060b1ca14610f625780639331621214610f6a57806395082d2514610fa25780639576f62714610faa5780639698d25a14610fd05780639849e41214610ff65780639899cd0214610ffe5780639d7432ca1461102a5780639f392eb31461105c578063a22f239214611064578063a42ab3d21461106c578063a5e90eee14611098578063a93acac2146110c6578063ab2f3ad4146110ec578063ad1e4f8d14611112578063ad622e1c14611138578063ae3302c214611194578063b136ca491461119c578063b1cc53ab146111c2578063b364accb146111fa578063c3c7b9e914611220578063c4f718bf14611246578063c65bc7b11461124e578063c7e074c314611274578063cea0c328146112b4578063cfad57a2146112ea578063d2fa635e14611310578063d3127e631461132d578063d54d5a9f1461134a578063d66b000d146113a9578063d8f897c3146113d5578063d9ac4225146113fb578063da76524c14611403578063daf9c2101461144d578063db3555fb14611473578063db97495f14611499578063dc8f5fac146114e5578063de2ea948146114ed578063df73a26714611535578063e124e6d21461153d578063e468baf014611563578063e67f59a714611580578063efa10a6e146115a6578063f07456ce146115d2578063f07bbf77146115f8578063f255527814611617578063f3ae241514611645578063f5b91b7b1461166b578063f887ea4014611673578063fa12dbc01461167b578063fbfded6d146116ad578063fce28c10146116db578063fdaf6ac3146116e3578063fed1a6061461172757610579565b806304fef1db1461057e57806307c58752146105b65780630842b076146105be5780630a48d5a9146105c657806310eb56c2146105f2578063126082cf146105fa57806312d43a5114610602578063134ca63b14610626578063174d26941461062e578063181e210e146106365780631aa4ace5146106525780631ce9cb8f1461067857806324b0c04d1461069e57806324ca984e146106bf57806326fb75aa146106e557806328e67be51461070b57806329ff9615146107805780632c668ec1146107a65780632d4b0576146107d2578063318bc6891461081057806334c1557d146105fa578063392e53cd1461081857806339deca06146108205780633a05dcc1146108465780633de39c111461086c5780633e72a2621461087457806340eb38021461087c57806342152873146108cd57806342b60b03146109015780634453a3741461092757806345a6f3701461095557806348d91abf146109ae57806348f35cbb146109f25780634a3f088d146109fa5780634a993ee914610a7b5780634befe2ca14610aa15780634d47b30414610aa9578063514ea4bf14610ab157806351723e8214610b06578063523fba7f14610b44578063529a356f14610b6a57806352f55eed14610b905780635c07eaab14610bb65780635f7bc11914610bf65780636092219914610c1c57806362287a3214610c4a5780636274980314610c525780636abbe0c814610c785780636ae0b15414610c805780636be6026b14610ca657806371089f4d14610cae578063711e619014610cd4578063724e78da14610d02578063728cdbca14610d28578063741bef1a14610d705780637a210a2b14610d785780637c2eb9f714610d80578063817bb85714610d9f57806381a612d614610dcd57806382a0849014610df35780638585f4d214610e47575b600080fd5b6105a46004803603602081101561059457600080fd5b50356001600160a01b03166117b9565b60408051918252519081900360200190f35b6105a461181c565b6105a461182d565b6105a4600480360360408110156105dc57600080fd5b506001600160a01b038135169060200135611833565b6105a4611886565b6105a461188c565b61060a611892565b604080516001600160a01b039092168252519081900360200190f35b6105a46118a1565b6105a46118a7565b61063e6118ad565b604080519115158252519081900360200190f35b6105a46004803603602081101561066857600080fd5b50356001600160a01b03166118bb565b6105a46004803603602081101561068e57600080fd5b50356001600160a01b03166118cd565b6106bd600480360360208110156106b457600080fd5b503515156118df565b005b6106bd600480360360208110156106d557600080fd5b50356001600160a01b03166118fa565b6105a4600480360360208110156106fb57600080fd5b50356001600160a01b031661192b565b6106bd6004803603604081101561072157600080fd5b81359190810190604081016020820135600160201b81111561074257600080fd5b82018360208201111561075457600080fd5b803590602001918460018302840111600160201b8311171561077557600080fd5b50909250905061193d565b6105a46004803603602081101561079657600080fd5b50356001600160a01b03166119bb565b6105a4600480360360408110156107bc57600080fd5b506001600160a01b0381351690602001356119cf565b6105a4600480360360808110156107e857600080fd5b506001600160a01b038135811691602081013582169160408201351690606001351515611a14565b6105a4611a6a565b61063e611a70565b6105a46004803603602081101561083657600080fd5b50356001600160a01b0316611a79565b6105a46004803603602081101561085c57600080fd5b50356001600160a01b0316611a8b565b6105a4611b4b565b61063e611b51565b6106bd600480360361012081101561089357600080fd5b5080359060208101359060408101359060608101359060808101359060a08101359060c08101359060e08101359061010001351515611b5f565b6105a4600480360360608110156108e357600080fd5b508035906001600160a01b0360208201358116916040013516611c19565b61063e6004803603602081101561091757600080fd5b50356001600160a01b0316611cbb565b6106bd6004803603604081101561093d57600080fd5b506001600160a01b0381351690602001351515611cd0565b6109936004803603608081101561096b57600080fd5b506001600160a01b038135811691602081013582169160408201351690606001351515611d03565b60408051921515835260208301919091528051918290030190f35b6106bd600480360360a08110156109c457600080fd5b506001600160a01b038135811691602081013582169160408201351690606081013590608001351515611da1565b61060a6122a3565b610a3860048036036080811015610a1057600080fd5b506001600160a01b0381358116916020810135821691604082013516906060013515156122b2565b604080519889526020890197909752878701959095526060870193909352608086019190915260a0850152151560c084015260e083015251908190036101000190f35b6105a460048036036020811015610a9157600080fd5b50356001600160a01b03166123a8565b6105a46123ba565b6105a46123c0565b610ace60048036036020811015610ac757600080fd5b50356123c6565b604080519788526020880196909652868601949094526060860192909252608085015260a084015260c0830152519081900360e00190f35b6105a460048036036080811015610b1c57600080fd5b506001600160a01b038135811691602081013582169160408201351690606001351515612403565b6105a460048036036020811015610b5a57600080fd5b50356001600160a01b03166124a9565b61063e60048036036020811015610b8057600080fd5b50356001600160a01b03166124bb565b6105a460048036036020811015610ba657600080fd5b50356001600160a01b03166124d0565b610993600480360360a0811015610bcc57600080fd5b506001600160a01b03813516906020810135906040810135906060810135151590608001356124e2565b6106bd60048036036020811015610c0c57600080fd5b50356001600160a01b03166125da565b61063e60048036036040811015610c3257600080fd5b506001600160a01b03813581169160200135166126bd565b6105a46126dd565b6105a460048036036020811015610c6857600080fd5b50356001600160a01b03166126e3565b61060a6126f5565b6106bd60048036036020811015610c9657600080fd5b50356001600160a01b031661270a565b6105a4612738565b6106bd60048036036020811015610cc457600080fd5b50356001600160a01b031661273f565b6105a460048036036040811015610cea57600080fd5b506001600160a01b0381358116916020013516612771565b6106bd60048036036020811015610d1857600080fd5b50356001600160a01b03166129e9565b6106bd600480360360c0811015610d3e57600080fd5b506001600160a01b03813581169160208101358216916040820135169060608101359060808101359060a00135612a13565b61060a612ac3565b6105a4612ad2565b6106bd60048036036020811015610d9657600080fd5b50351515612ad8565b6105a460048036036040811015610db557600080fd5b506001600160a01b0381358116916020013516612afa565b6105a460048036036020811015610de357600080fd5b50356001600160a01b0316612dae565b6105a4600480360360e0811015610e0957600080fd5b506001600160a01b0381358116916020810135821691604082013581169160608101359160808201359160a081013515159160c09091013516612e36565b6106bd60048036036040811015610e5d57600080fd5b506001600160a01b038135169060200135612eb3565b6105a4612ed7565b6105a460048036036020811015610e9157600080fd5b50356001600160a01b0316612edc565b6106bd60048036036060811015610eb757600080fd5b5080359060208101359060400135612eee565b6105a460048036036020811015610ee057600080fd5b50356001600160a01b0316612f34565b6105a460048036036020811015610f0657600080fd5b50356001600160a01b0316612f46565b6105a460048036036020811015610f2c57600080fd5b50356001600160a01b0316612f58565b6106bd60048036036020811015610f5257600080fd5b50356001600160a01b0316612f6a565b61063e612f94565b6105a460048036036060811015610f8057600080fd5b506001600160a01b038135811691602081013582169160409091013516612f9d565b6105a4613027565b6105a460048036036020811015610fc057600080fd5b50356001600160a01b0316613037565b6105a460048036036020811015610fe657600080fd5b50356001600160a01b0316613049565b6105a461305b565b6105a46004803603604081101561101457600080fd5b506001600160a01b038135169060200135613061565b6105a46004803603606081101561104057600080fd5b506001600160a01b038135169060208101359060400135613083565b61063e61312c565b6105a4613135565b6105a46004803603604081101561108257600080fd5b506001600160a01b03813516906020013561313b565b6106bd600480360360408110156110ae57600080fd5b506001600160a01b0381351690602001351515613158565b6105a4600480360360208110156110dc57600080fd5b50356001600160a01b031661318b565b6105a46004803603602081101561110257600080fd5b50356001600160a01b0316613289565b6105a46004803603602081101561112857600080fd5b50356001600160a01b031661329b565b6106bd600480360361012081101561114f57600080fd5b506001600160a01b038135169060208101359060408101359060608101359060808101359060a08101359060c08101359060e0810135151590610100013515156132ad565b6105a4613406565b6105a4600480360360208110156111b257600080fd5b50356001600160a01b031661340c565b6105a4600480360360608110156111d857600080fd5b506001600160a01b0381358116916020810135909116906040013515156134ad565b6109936004803603602081101561121057600080fd5b50356001600160a01b0316613547565b6105a46004803603602081101561123657600080fd5b50356001600160a01b03166135df565b6105a46135f1565b6105a46004803603602081101561126457600080fd5b50356001600160a01b03166135f7565b6105a4600480360360a081101561128a57600080fd5b506001600160a01b0381351690602081013590604081013590606081013590608001351515613609565b6106bd600480360360608110156112ca57600080fd5b506001600160a01b038135811691602081013590911690604001356136b2565b6106bd6004803603602081101561130057600080fd5b50356001600160a01b0316613773565b6106bd6004803603602081101561132657600080fd5b503561379d565b6106bd6004803603602081101561134357600080fd5b50356137aa565b611390600480360360a081101561136057600080fd5b506001600160a01b03813581169160208101358216916040820135169060608101351515906080013515156137c6565b6040805192835260208301919091528051918290030190f35b6106bd600480360360408110156113bf57600080fd5b506001600160a01b03813516906020013561387c565b6105a4600480360360208110156113eb57600080fd5b50356001600160a01b03166138d7565b6105a46138e9565b6105a4600480360360c081101561141957600080fd5b506001600160a01b038135811691602081013582169160408201351690606081013515159060808101359060a001356138ef565b61063e6004803603602081101561146357600080fd5b50356001600160a01b03166139a2565b61063e6004803603602081101561148957600080fd5b50356001600160a01b03166139b7565b6105a4600480360360e08110156114af57600080fd5b506001600160a01b0381351690602081013590604081013590606081013515159060808101359060a08101359060c001356139cc565b6105a4613a5d565b6106bd600480360360a081101561150357600080fd5b506001600160a01b03813581169160208101358216916040820135811691606081013515159160809091013516613a63565b6105a4613e87565b6105a46004803603602081101561155357600080fd5b50356001600160a01b0316613e8d565b61060a6004803603602081101561157957600080fd5b5035613ee5565b6106bd6004803603602081101561159657600080fd5b50356001600160a01b0316613f0c565b6106bd600480360360408110156115bc57600080fd5b506001600160a01b038135169060200135613ff2565b6105a4600480360360208110156115e857600080fd5b50356001600160a01b0316614016565b6106bd6004803603602081101561160e57600080fd5b50351515614028565b6105a46004803603604081101561162d57600080fd5b506001600160a01b038135811691602001351661404a565b61063e6004803603602081101561165b57600080fd5b50356001600160a01b03166140a0565b61060a6140b5565b61060a6140c4565b6105a46004803603606081101561169157600080fd5b506001600160a01b0381351690602081013590604001356140d3565b6106bd600480360360408110156116c357600080fd5b506001600160a01b038135811691602001351661410d565b6105a46142e5565b6105a4600480360360a08110156116f957600080fd5b506001600160a01b0381358116916020810135821691604082013516906060810135151590608001356142eb565b6117446004803603602081101561173d57600080fd5b5035614360565b6040805160208082528351818301528351919283929083019185019080838360005b8381101561177e578181015183820152602001611766565b50505050905090810190601f1680156117ab5780820380516001836020036101000a031916815260200191505b509250505060405180910390f35b6001600160a01b038116600090815260576020526040812054806117e1576000915050611817565b6001600160a01b03831660009081526058602052604090205461181390829061180d90620f42406143fb565b90614454565b9150505b919050565b6904ee2d6d415b85acef8160201b81565b604d5490565b60008161184257506000611880565b600061184d84612dae565b6001600160a01b0385166000908152604f602052604090205490915061187b600a82900a61180d86856143fb565b925050505b92915050565b603d5481565b61271081565b6038546001600160a01b031681565b60465481565b603b5481565b604854610100900460ff1681565b60556020526000908152604090205481565b605e6020526000908152604090205481565b6118e7614493565b6048805460ff1916911515919091179055565b336000908152604a602090815260408083206001600160a01b0394909416835292905220805460ff19166001179055565b60646020526000908152604090205481565b6034546001600160a01b0316331461199c576040805162461bcd60e51b815260206004820152601e60248201527f5661756c743a20696e76616c6964206572726f72436f6e74726f6c6c65720000604482015290519081900360640190fd5b60008381526062602052604090206119b5908383615d1a565b50505050565b6000611880826119ca8461340c565b611833565b6000806119db84613e8d565b905060006119f98261180d8668327cb2734119d3b7a9601e1b6143fb565b60375490915061187b9082906001600160a01b031687611c19565b604080516001600160601b0319606096871b811660208084019190915295871b811660348301529390951b9092166048850152151560f81b605c8401528051603d818503018152605d9093019052815191012090565b60415481565b60335460ff1681565b60666020526000908152604090205481565b600080603760009054906101000a90046001600160a01b03166001600160a01b03166318160ddd6040518163ffffffff1660e01b815260040160206040518083038186803b158015611adc57600080fd5b505afa158015611af0573d6000803e3d6000fd5b505050506040513d6020811015611b0657600080fd5b5051905080611b19576000915050611817565b6001600160a01b038316600090815260546020526040902054604754611b439061180d83856143fb565b949350505050565b60495481565b603354610100900460ff1681565b611b67614493565b611b776101f48a111560036144ae565b611b876101f489111560046144ae565b611b976101f488111560056144ae565b611ba76101f487111560066144ae565b611bb76101f486111560076144ae565b611bc76101f485111560086144ae565b611be26904ee2d6d415b85acef8160201b84111560096144ae565b603c98909855603d96909655603e94909455603f92909255604055604155603b556042556043805460ff1916911515919091179055565b60375460009081906001600160a01b03858116911614611c51576001600160a01b0384166000908152604f6020526040902054611c54565b60125b6037549091506000906001600160a01b03858116911614611c8d576001600160a01b0384166000908152604f6020526040902054611c90565b60125b9050611caf82600a0a61180d83600a0a896143fb90919063ffffffff16565b925050505b9392505050565b60516020526000908152604090205460ff1681565b611cd8614493565b6001600160a01b03919091166000908152604b60205260409020805460ff1916911515919091179055565b6000806000611d1487878787611a14565b9050611d1e615d98565b506000818152605d6020908152604091829020825160e081018452815480825260018301549382019390935260028201549381018490526003820154606082015260048201546080820152600582015460a082015260069091015460c082018190529092611d9292899290919089906124e2565b93509350505094509492505050565b60026001541415611de7576040805162461bcd60e51b815260206004820152601f6024820152600080516020615deb833981519152604482015290519081900360640190fd5b6002600155603354611e0290610100900460ff16601c6144ae565b611e0a61455a565b611e1385614576565b611e1e8484836145d9565b60335460408051634eae147d60e11b81526001600160a01b0388811660048301528781166024830152868116604483015260648201869052841515608483015291516201000090930490911691639d5c28fa9160a480820192600092909190829003018186803b158015611e9157600080fd5b505afa158015611ea5573d6000803e3d6000fd5b505050508015611f1a576001600160a01b038316600090815260656020526040812054611ed290846146a9565b6001600160a01b038516600090815260636020526040902054909150611efc9082111560386144ae565b6001600160a01b038416600090815260656020526040902055611f81565b6001600160a01b038316600090815260666020526040812054611f3d90846146a9565b6001600160a01b038516600090815260646020526040902054909150611f679082111560396144ae565b6001600160a01b0384166000908152606660205260409020555b611f8b848461410d565b6000611f9986868685611a14565b6000818152605d6020526040812091925083611fbd57611fb886612dae565b611fc6565b611fc686613e8d565b8254909150611fd757600282018190555b815415801590611fe75750600085115b1561200d57612007868360000154846002015487858a88600601546139cc565b60028301555b6000612026898989888a88600001548960030154614701565b90506000612033896147bd565b905060006120418a83611833565b600186015490915061205390826146a9565b6001860181905561206890841115601d6144ae565b60018501546120779084614866565b60018601556120878a8a896134ad565b6003860155845461209890896146a9565b8086554260068701556120ae901515601e6144ae565b6120c0856000015486600101546148a8565b6120ce8b8b8b8a60016137c6565b505060006120dc8b8a61313b565b60048701549091506120ee90826146a9565b60048701556120fd8b826148cc565b8715612142576121168b6121118b876146a9565b61496c565b6121208b836149eb565b61212a8b84614a6a565b61213d8b6121388d87613061565b614b82565b6121ae565b6001600160a01b038a166000908152605f602052604090205461217f576001600160a01b038a1660009081526060602052604090208590556121a4565b61218a8a868b613083565b6001600160a01b038b166000908152606060205260409020555b6121ae8a8a614c55565b604080518881526001600160a01b03808f166020830152808e16828401528c1660608201526080810184905260a081018b905289151560c082015260e08101879052610100810186905290517f2fe68525253654c21998f35787a8d0f361905ef647c854092430ab65f2f15022918190036101200190a1855460018701546002880154600389015460048a015460058b0154604080518e81526020810197909752868101959095526060860193909352608085019190915260a084015260c083015260e0820187905251600080516020615e0b833981519152918190036101000190a150506001805550505050505050505050565b6034546001600160a01b031681565b60008060008060008060008060006122cc8d8d8d8d611a14565b90506122d6615d98565b605d60008381526020019081526020016000206040518060e001604052908160008201548152602001600182015481526020016002820154815260200160038201548152602001600482015481526020016005820154815260200160068201548152505090506000808260a0015113612356578160a0015160000361235c565b8160a001515b9050816000015182602001518360400151846060015185608001518560008860a0015112158860c001519a509a509a509a509a509a509a509a5050505094995094995094999196509450565b60596020526000908152604090205481565b6101f481565b603e5481565b605d602052600090815260409020805460018201546002830154600384015460048501546005860154600690960154949593949293919290919087565b60008061241286868686611a14565b905061241c615d98565b506000818152605d6020908152604091829020825160e0810184528154815260018201549281018390526002820154938101939093526003810154606084015260048101546080840152600581015460a08401526006015460c083015261248690151560256144ae565b6020810151815161249e919061180d906127106143fb565b979650505050505050565b60536020526000908152604090205481565b604b6020526000908152604090205460ff1681565b60576020526000908152604090205481565b6000806124f36000861160266144ae565b6000846125085761250388613e8d565b612511565b61251188612dae565b9050600081871161252b576125268288614866565b612535565b6125358783614866565b905060006125478861180d8b856143fb565b90506000871561255a575087831161255f565b508288115b6000612576604254896146a990919063ffffffff16565b421161259a576001600160a01b038c1660009081526050602052604090205461259d565b60005b90508180156125c057506125b18b826143fb565b6125bd846127106143fb565b11155b156125ca57600092505b509a909950975050505050505050565b60026001541415612620576040805162461bcd60e51b815260206004820152601f6024820152600080516020615deb833981519152604482015290519081900360640190fd5b60026001556001600160a01b0381166000908152604e602052604090205461264c9060ff16600e6144ae565b6000612657826147bd565b905061266760008211600f6144ae565b6126718282614a6a565b604080516001600160a01b03841681526020810183905281517fa5a389190ebf6170a133bda5c769b77f4d6715b8aa172ec0ddf8473d0b4944bd929181900390910190a1505060018055565b604a60209081526000928352604080842090915290825290205460ff1681565b60395481565b60606020526000908152604090205481565b6033546201000090046001600160a01b031681565b336000908152604a602090815260408083206001600160a01b0394909416835292905220805460ff19169055565b620f424081565b612747614493565b603380546001600160a01b03909216620100000262010000600160b01b0319909216919091179055565b6000600260015414156127b9576040805162461bcd60e51b815260206004820152601f6024820152600080516020615deb833981519152604482015290519081900360640190fd5b60026001556127c6614d0d565b6001600160a01b0383166000908152604e60205260409020546127ed9060ff1660136144ae565b603754600090612805906001600160a01b03166147bd565b90506128156000821160146144ae565b61281f848561410d565b600061282b85836119cf565b905061283b6000821160156144ae565b6128458583614d36565b61284f8582614b82565b60375460408051632770a7eb60e21b81523060048201526024810185905290516001600160a01b0390921691639dc29fac9160448082019260009290919082900301818387803b1580156128a257600080fd5b505af11580156128b6573d6000803e3d6000fd5b50506037546128d092506001600160a01b03169050614df4565b6033546040805163eb0835bf60e01b81526001600160a01b0388811660048301526024820186905291516000936201000090049092169163eb0835bf91604480820192602092909190829003018186803b15801561292d57600080fd5b505afa158015612941573d6000803e3d6000fd5b505050506040513d602081101561295757600080fd5b505190506000612968878484614e8f565b90506129786000821160166144ae565b612983878288614f57565b604080516001600160a01b03808916825289166020820152808201869052606081018390526080810184905290517fd732b7828fa6cee72c285eac756fc66a7477e3dc22e22e7c432f1c265d40b4839181900360a00190a1600180559695505050505050565b6129f1614493565b603680546001600160a01b0319166001600160a01b0392909216919091179055565b603354612a259060ff161560016144ae565b612a2d614ffe565b6033805460ff19166001179055603580546001600160a01b039788166001600160a01b0319918216179091556037805496881696821696909617909555603680549490961693851693909317909455603b55604592909255604691909155622625a0603a556032603c556014603d55601e603e819055603f556004604055600a6041556170806044556038805490911633179055565b6036546001600160a01b031681565b603c5481565b612ae0614493565b603380549115156101000261ff0019909216919091179055565b600060026001541415612b42576040805162461bcd60e51b815260206004820152601f6024820152600080516020615deb833981519152604482015290519081900360640190fd5b6002600155612b4f614d0d565b6001600160a01b0383166000908152604e6020526040902054612b769060ff1660106144ae565b6000612b81846147bd565b9050612b916000821160116144ae565b612b9b848561410d565b6000612ba685612dae565b90506000612bc468327cb2734119d3b7a9601e1b61180d85856143fb565b603754909150612be090829088906001600160a01b0316611c19565b9050612bf06000821160126144ae565b6033546040805163256f6ee360e11b81526001600160a01b03898116600483015260248201859052915160009362010000900490921691634adeddc691604480820192602092909190829003018186803b158015612c4d57600080fd5b505afa158015612c61573d6000803e3d6000fd5b505050506040513d6020811015612c7757600080fd5b505190506000612c88888684614e8f565b90506000612ca668327cb2734119d3b7a9601e1b61180d84886143fb565b603754909150612cc29082908b906001600160a01b0316611c19565b9050612cce89826150a3565b612cd88983614a6a565b603754604080516340c10f1960e01b81526001600160a01b038b8116600483015260248201859052915191909216916340c10f1991604480830192600092919082900301818387803b158015612d2d57600080fd5b505af1158015612d41573d6000803e3d6000fd5b5050604080516001600160a01b03808d1682528d1660208201528082018a9052606081018590526080810187905290517fab4c77c74cd32c85f35416cf03e7ce9e2d4387f7b7f2c1f4bf53daaecf8ea72d93509081900360a0019150a16001805598975050505050505050565b603654604080516303b6b4bb60e51b81526001600160a01b0384811660048301526000602483018190529251929316916376d6976091604480820192602092909190829003018186803b158015612e0457600080fd5b505afa158015612e18573d6000803e3d6000fd5b505050506040513d6020811015612e2e57600080fd5b505192915050565b600060026001541415612e7e576040805162461bcd60e51b815260206004820152601f6024820152600080516020615deb833981519152604482015290519081900360640190fd5b6002600155612e8b61455a565b612e9488614576565b612ea388888888888888615161565b6001805598975050505050505050565b612ebb614493565b6001600160a01b03909116600090815260596020526040902055565b601281565b60506020526000908152604090205481565b612ef6614493565b612f06610e10841015600a6144ae565b612f16612710831115600b6144ae565b612f26612710821115600c6144ae565b604492909255604555604655565b605f6020526000908152604090205481565b60656020526000908152604090205481565b604f6020526000908152604090205481565b612f72614493565b603480546001600160a01b0319166001600160a01b0392909216919091179055565b60485460ff1681565b600060026001541415612fe5576040805162461bcd60e51b815260206004820152601f6024820152600080516020615deb833981519152604482015290519081900360640190fd5b60026001556040805162461bcd60e51b815260206004820152600d60248201526c1cddd85c08191a5cd8589b1959609a1b604482015290519081900360640190fd5b68327cb2734119d3b7a9601e1b81565b60636020526000908152604090205481565b60616020526000908152604090205481565b60445481565b60008161307057506000611880565b611cb4838361307e86613e8d565b6140d3565b6001600160a01b0383166000908152605f60209081526040808320546060909252822054828582116130be576130b98683614866565b6130c8565b6130c88287614866565b905060006130da8361180d86856143fb565b905086831160006130eb86896146a9565b9050600082613103576130fe82856146a9565b61310d565b61310d8285614866565b905061311d8161180d8c856143fb565b9b9a5050505050505050505050565b60435460ff1681565b603f5481565b60008161314a57506000611880565b611cb4838361307e86612dae565b613160614493565b6001600160a01b03919091166000908152604c60205260409020805460ff1916911515919091179055565b6044546001600160a01b0382166000908152605c6020526040812054909142916131b4916146a9565b11156131c257506000611817565b6044546001600160a01b0383166000908152605c602052604081205490916131ef9161180d904290614866565b6001600160a01b0384166000908152605760205260409020549091508061321b57600092505050611817565b6001600160a01b03841660009081526051602052604081205460ff1661324357604554613247565b6046545b6001600160a01b03861660009081526058602052604090205490915061328090839061180d90869061327a9086906143fb565b906143fb565b95945050505050565b60546020526000908152604090205481565b60566020526000908152604090205481565b6132b5614493565b6001600160a01b0389166000908152604e602052604090205460ff16613332576039546132e39060016146a9565b603955604d80546001810182556000919091527f1b524e1c8b5382bb913d0a2aae8ad83bb92a45fcb47761fa4a12f5b6316c2b200180546001600160a01b0319166001600160a01b038b161790555b6047546001600160a01b038a16600090815260546020526040902054613359908290614866565b6001600160a01b038b166000908152604e602090815260408083208054600160ff1991821617909155604f83528184208e9055605483528184208d9055605083528184208c9055605683528184208b90556051835281842080548216891515179055605283528184208054909116871515179055606382528083208990556064909152902085905590506133ed81896146a9565b6047556133f98a613e8d565b5050505050505050505050565b603a5481565b6001600160a01b03811660009081526051602052604081205460ff161561344c57506001600160a01b038116600090815260576020526040902054611817565b6001600160a01b0382166000908152605a6020526040812054613470908490613061565b6001600160a01b038416600090815260586020908152604080832054605790925290912054919250611813916134a79084906146a9565b90614866565b6033546040805163b1cc53ab60e01b81526001600160a01b0386811660048301528581166024830152841515604483015291516000936201000090049092169163b1cc53ab91606480820192602092909190829003018186803b15801561351357600080fd5b505afa158015613527573d6000803e3d6000fd5b505050506040513d602081101561353d57600080fd5b5051949350505050565b6001600160a01b0381166000908152605f60205260408120548190806135745760008092509250506135da565b600061357f85613e8d565b6001600160a01b0386166000908152606060205260408120549192508282116135b1576135ac8383614866565b6135bb565b6135bb8284614866565b905060006135cd8361180d87856143fb565b9390921195509193505050505b915091565b60586020526000908152604090205481565b60455481565b605b6020526000908152604090205481565b6033546040805163c7e074c360e01b81526001600160a01b038881166004830152602482018890526044820187905260648201869052841515608483015291516000936201000090049092169163c7e074c39160a480820192602092909190829003018186803b15801561367c57600080fd5b505afa158015613690573d6000803e3d6000fd5b505050506040513d60208110156136a657600080fd5b50519695505050505050565b6136ba614493565b47801561375f576040516000906001600160a01b0386169083908381818185875af1925050503d806000811461370c576040519150601f19603f3d011682016040523d82523d6000602084013e613711565b606091505b505090508061375d576040805162461bcd60e51b815260206004820152601360248201527211551208151c985b9cd9995c8819985a5b1959606a1b604482015290519081900360640190fd5b505b6119b56001600160a01b0384168584615671565b61377b614493565b603880546001600160a01b0319166001600160a01b0392909216919091179055565b6137a5614493565b604955565b6137b2614493565b6137c1612710821160026144ae565b603a55565b6033546040805163d54d5a9f60e01b81526001600160a01b038881166004830152878116602483015286811660448301528515156064830152841515608483015282516000948594620100009091049092169263d54d5a9f9260a4808301939192829003018186803b15801561383b57600080fd5b505afa15801561384f573d6000803e3d6000fd5b505050506040513d604081101561386557600080fd5b508051602090910151909890975095505050505050565b613884614493565b6001600160a01b038216600090815260556020526040902054808211156138be576138b8836138b38484614866565b6150a3565b506138d3565b6138d1836138cc8385614866565b614d36565b505b5050565b605c6020526000908152604090205481565b60425481565b6033546040805163369d949360e21b81526001600160a01b0389811660048301528881166024830152878116604483015286151560648301526084820186905260a4820185905291516000936201000090049092169163da76524c9160c480820192602092909190829003018186803b15801561396b57600080fd5b505afa15801561397f573d6000803e3d6000fd5b505050506040513d602081101561399557600080fd5b5051979650505050505050565b604e6020526000908152604090205460ff1681565b60526020526000908152604090205460ff1681565b60008060006139de8a8a8a8a886124e2565b909250905060006139ef8a876146a9565b905060008815613a1e5783613a0d57613a088284614866565b613a17565b613a1782846146a9565b9050613a3f565b83613a3257613a2d82846146a9565b613a3c565b613a3c8284614866565b90505b613a4d8161180d8a856143fb565b9c9b505050505050505050505050565b60475481565b60026001541415613aa9576040805162461bcd60e51b815260206004820152601f6024820152600080516020615deb833981519152604482015290519081900360640190fd5b6002600155604854610100900460ff1615613adc57336000908152604b6020526040902054613adc9060ff1660226144ae565b613ae6848461410d565b6000613af486868686611a14565b9050613afe615d98565b506000818152605d6020908152604091829020825160e08101845281548082526001830154938201939093526002820154938101939093526003810154606084015260048101546080840152600581015460a08401526006015460c0830152613b6a90151560236144ae565b600080613b7b8989898960006137c6565b91509150613b8e826000141560246144ae565b8160021415613bb557613bab898989600087600001518b8f615161565b5050505050613e7c565b8515613bfd5782516001600160a01b038816600090815260656020526040902054613bdf91614866565b6001600160a01b038816600090815260656020526040902055613c3b565b82516001600160a01b038816600090815260666020526040902054613c2191614866565b6001600160a01b0388166000908152606660205260409020555b6000613c478983613061565b6001600160a01b038a166000908152605e6020526040902054909150613c6d90826146a9565b6001600160a01b038a166000818152605e60209081526040918290209390935580519182529181018490528082018390529051600080516020615ee48339815191529181900360600190a1613cc68985608001516156c3565b8615613cf55760208401518451613ce7918b91613ce291614866565b6149eb565b613cf5896121388b85613061565b600087613d0a57613d0589613e8d565b613d13565b613d1389612dae565b90507f2e1f85a64a2f22cf2f0c42584e7c919ed4abe8d53675cff0f62bf1e95a1c676f868c8c8c8c8a600001518b602001518c608001518d60a001518a604051808b81526020018a6001600160a01b03168152602001896001600160a01b03168152602001886001600160a01b0316815260200187151581526020018681526020018581526020018481526020018381526020018281526020019a505050505050505050505060405180910390a187158015613dd25750846020015183105b15613e00576020850151600090613de99085614866565b9050613dfe8b613df98d84613061565b614a6a565b505b87613e1357613e13898660000151615778565b6000868152605d60205260408120818155600181018290556002810182905560038101829055600481018290556005810182905560060155603b54613e5f908b90612138908290613061565b613e758a613e6f8c603b54613061565b89614f57565b5050505050505b505060018055505050565b60405481565b603654604080516303b6b4bb60e51b81526001600160a01b03848116600483015260016024830152915160009392909216916376d6976091604480820192602092909190829003018186803b158015612e0457600080fd5b604d8181548110613ef257fe5b6000918252602090912001546001600160a01b0316905081565b613f14614493565b6001600160a01b0381166000908152604e6020526040902054613f3b9060ff16600d6144ae565b6001600160a01b038116600090815260546020526040902054604754613f6091614866565b6047556001600160a01b0381166000908152604e60209081526040808320805460ff19908116909155604f8352818420849055605483528184208490556050835281842084905560568352818420849055605183528184208054821690556052835281842080549091169055606382528083208390556064909152812055603954613fec906001614866565b60395550565b613ffa614493565b6001600160a01b03909116600090815260616020526040902055565b605a6020526000908152604090205481565b614030614493565b604880549115156101000261ff0019909216919091179055565b6000614054614493565b6001600160a01b0383166000908152605e60205260409020548061407c576000915050611880565b6001600160a01b0384166000908152605e6020526040812055611cb4848285614f57565b604c6020526000908152604090205460ff1681565b6037546001600160a01b031681565b6035546001600160a01b031681565b6000826140e257506000611cb4565b6001600160a01b0384166000908152604f60205260409020546132808361180d86600a85900a6143fb565b6033546040805163fbfded6d60e01b81526001600160a01b038581166004830152848116602483015291516000936201000090049092169163fbfded6d9160448082019260209290919082900301818787803b15801561416c57600080fd5b505af1158015614180573d6000803e3d6000fd5b505050506040513d602081101561419657600080fd5b50519050806141a557506138d3565b6001600160a01b0383166000908152605c60205260409020546141f2576044546141d39061327a4282614454565b6001600160a01b0384166000908152605c6020526040902055506138d3565b6044546001600160a01b0384166000908152605c6020526040902054429161421a91906146a9565b111561422657506138d3565b60006142318461318b565b6001600160a01b0385166000908152605b602052604090205490915061425790826146a9565b6001600160a01b0385166000908152605b60205260409020556044546142819061327a4282614454565b6001600160a01b0385166000818152605c6020908152604080832094909455605b8152908390205483519283529082015281517fa146fc154e1913322e9817d49f0d5c37466c24326e15de10e739a948be815eab929181900390910190a150505050565b610e1081565b6033546040805163fdaf6ac360e01b81526001600160a01b0388811660048301528781166024830152868116604483015285151560648301526084820185905291516000936201000090049092169163fdaf6ac39160a480820192602092909190829003018186803b15801561367c57600080fd5b60626020908152600091825260409182902080548351601f6002600019610100600186161502019093169290920491820184900484028101840190945280845290918301828280156143f35780601f106143c8576101008083540402835291602001916143f3565b820191906000526020600020905b8154815290600101906020018083116143d657829003601f168201915b505050505081565b60008261440a57506000611880565b8282028284828161441757fe5b0414611cb45760405162461bcd60e51b8152600401808060200182810382526021815260200180615e796021913960400191505060405180910390fd5b6000611cb483836040518060400160405280601a815260200179536166654d6174683a206469766973696f6e206279207a65726f60301b8152506157e0565b6038546144ac906001600160a01b0316331460356144ae565b565b6000818152606260205260409020826138d15760405162461bcd60e51b815260206004820190815282546002600019610100600184161502019091160460248301819052909182916044909101908490801561454b5780601f106145205761010080835404028352916020019161454b565b820191906000526020600020905b81548152906001019060200180831161452e57829003601f168201915b50509250505060405180910390fd5b604954614566576144ac565b6144ac6049543a111560376144ae565b336001600160a01b038216141561458c576145d6565b6035546001600160a01b03163314156145a4576145d6565b6001600160a01b0381166000908152604a602090815260408083203384529091529020546145d69060ff1660296144ae565b50565b8015614633576001600160a01b0383166000908152604e60205260409020546146069060ff16602b6144ae565b6001600160a01b03831660009081526051602052604090205461462e9060ff1615602c6144ae565b6138d1565b6001600160a01b0383166000908152604e602052604090205461465a9060ff16602d6144ae565b6001600160a01b0382166000908152605160205260409020546146829060ff1615602f6144ae565b6001600160a01b0382166000908152605260205260409020546138d19060ff1660306144ae565b600082820183811015611cb4576040805162461bcd60e51b815260206004820152601b60248201527a536166654d6174683a206164646974696f6e206f766572666c6f7760281b604482015290519081900360640190fd5b60008061471189898989896142eb565b905060006147238a8a8a8a89896138ef565b905061472f82826146a9565b9150600061473d8a84613061565b6001600160a01b038b166000908152605e602052604090205490915061476390826146a9565b6001600160a01b038b166000818152605e60209081526040918290209390935580519182529181018590528082018390529051600080516020615ee48339815191529181900360600190a150909998505050505050505050565b6001600160a01b03811660008181526053602090815260408083205481516370a0823160e01b8152306004820152915193949093859391926370a08231926024808301939192829003018186803b15801561481757600080fd5b505afa15801561482b573d6000803e3d6000fd5b505050506040513d602081101561484157600080fd5b50516001600160a01b03851660009081526053602052604090208190559050611b4381835b6000611cb483836040518060400160405280601e81526020017f536166654d6174683a207375627472616374696f6e206f766572666c6f770000815250615882565b816148be576148b9811560276144ae565b6138d3565b6138d38183101560286144ae565b6001600160a01b0382166000908152605860205260409020546148ef90826146a9565b6001600160a01b03831660009081526058602081815260408084208590556057825290922054915261492491111560346144ae565b604080516001600160a01b03841681526020810183905281517faa5649d82f5462be9d19b0f2b31a59b2259950a6076550bac9f3a1c07db9f66d929181900390910190a15050565b6001600160a01b0382166000908152605a602052604090205461498f90826146a9565b6001600160a01b0383166000818152605a602090815260409182902093909355805191825291810183905281517fd9d4761f75e0d0103b5cbeab941eeb443d7a56a35b5baf2a0787c03f03f4e474929181900390910190a15050565b6001600160a01b0382166000908152605a6020526040902054614a0e9082614866565b6001600160a01b0383166000818152605a602090815260409182902093909355805191825291810183905281517f34e07158b9db50df5613e591c44ea2ebc82834eff4a4dc3a46e000e608261d68929181900390910190a15050565b6001600160a01b038216600090815260576020526040902054614a8d90826146a9565b6001600160a01b03831660008181526057602090815260408083209490945583516370a0823160e01b8152306004820152935191936370a082319260248083019392829003018186803b158015614ae357600080fd5b505afa158015614af7573d6000803e3d6000fd5b505050506040513d6020811015614b0d57600080fd5b50516001600160a01b038416600090815260576020526040902054909150614b399082101560316144ae565b604080516001600160a01b03851681526020810184905281517f976177fbe09a15e5e43f848844963a42b41ef919ef17ff21a17a5421de8f4737929181900390910190a1505050565b604080518082018252601a81527915985d5b1d0e881c1bdbdb105b5bdd5b9d08195e18d95959195960321b6020808301919091526001600160a01b038516600090815260579091529190912054614bda918390615882565b6001600160a01b03831660009081526057602090815260408083208490556058909152902054614c0d91101560326144ae565b604080516001600160a01b03841681526020810183905281517f112726233fbeaeed0f5b1dba5cb0b2b81883dee49fb35ff99fd98ed9f6d31eb0929181900390910190a15050565b6001600160a01b0382166000908152605f6020526040902054614c7890826146a9565b6001600160a01b0383166000908152605f602090815260408083209390935560619052205480156138d1576001600160a01b0383166000908152605f60205260409020548110156138d1576040805162461bcd60e51b815260206004820152601a60248201527915985d5b1d0e881b585e081cda1bdc9d1cc8195e18d95959195960321b604482015290519081900360640190fd5b60485460ff16156144ac57336000908152604c60205260409020546144ac9060ff1660366144ae565b6001600160a01b038216600090815260556020526040902054818111614d9f576001600160a01b038316600081815260556020908152604080832092909255815192835282018390528051600080516020615e9a8339815191529281900390910190a1506138d3565b614da98183614866565b6001600160a01b0384166000818152605560209081526040918290209390935580519182529181018490528151600080516020615e9a833981519152929181900390910190a1505050565b6000816001600160a01b03166370a08231306040518263ffffffff1660e01b815260040180826001600160a01b0316815260200191505060206040518083038186803b158015614e4357600080fd5b505afa158015614e57573d6000803e3d6000fd5b505050506040513d6020811015614e6d57600080fd5b50516001600160a01b0390921660009081526053602052604090209190915550565b600080614eac61271061180d614ea58287614866565b87906143fb565b90506000614eba8583614866565b6001600160a01b0387166000908152605e6020526040902054909150614ee090826146a9565b6001600160a01b0387166000908152605e60205260409020557f47cd9dda0e50ce30bcaaacd0488452b596221c07ac402a581cfae4d3933cac2b86614f258184611833565b604080516001600160a01b0390931683526020830191909152818101849052519081900360600190a150949350505050565b614f6b6001600160a01b0384168284615671565b604080516370a0823160e01b815230600482015290516001600160a01b038516916370a08231916024808301926020929190829003018186803b158015614fb157600080fd5b505afa158015614fc5573d6000803e3d6000fd5b505050506040513d6020811015614fdb57600080fd5b50516001600160a01b039093166000908152605360205260409020929092555050565b600054610100900460ff168061501757506150176158dc565b80615025575060005460ff16155b6150605760405162461bcd60e51b815260040180806020018281038252602e815260200180615e4b602e913960400191505060405180910390fd5b600054610100900460ff1615801561508b576000805460ff1961ff0019909116610100171660011790555b6001805580156145d6576000805461ff001916905550565b6001600160a01b0382166000908152605560205260409020546150c690826146a9565b6001600160a01b0383166000908152605560209081526040808320939093556056905220548015615118576001600160a01b0383166000908152605560205260409020546151189082101560336144ae565b604080516001600160a01b03851681526020810184905281517f64243679a443432e2293343b77d411ff6144370404618f00ca0d2025d9ca9882929181900390910190a1505050565b603354604080516381d11a2360e01b81526001600160a01b038a8116600483015289811660248301528881166044830152606482018890526084820187905285151560a483015284811660c48301529151600093620100009004909216916381d11a239160e4808201928692909190829003018186803b1580156151e457600080fd5b505afa1580156151f8573d6000803e3d6000fd5b50505050615206878761410d565b600061521489898987611a14565b6000818152605d60205260409020805491925090615235901515601f6144ae565b615247868260000154101560206144ae565b615259878260010154101560216144ae565b84156152a0576001600160a01b0388166000908152606560205260409020546152829087614866565b6001600160a01b0389166000908152606560205260409020556152dd565b6001600160a01b0388166000908152606660205260409020546152c39087614866565b6001600160a01b0389166000908152606660205260409020555b6001810154815460048301546000916152fa9161180d908b6143fb565b600484015490915061530c9082614866565b600484015561531b8b826156c3565b5060008061532d8d8d8d8d8d8d6158ed565b8554919350915089146154ad576153458c8c8a6134ad565b60038501558354615356908a614866565b808555600185015461536891906148a8565b6153768d8d8d8b60016137c6565b505087156153a3576153998c61211186600101548661486690919063ffffffff16565b6153a38c8a6149eb565b6000886153b8576153b38c613e8d565b6153c1565b6153c18c612dae565b9050600080516020615e2b833981519152868f8f8f8f8f8f886153e48c8c614866565b60408051998a526001600160a01b0398891660208b015296881689880152949096166060880152608087019290925260a0860152151560c085015260e084019290925261010083019190915251908190036101200190a18454600186015460028701546003880154600489015460058a0154604080518d81526020810197909752868101959095526060860193909352608085019190915260a084015260c083015260e0820183905251600080516020615e0b833981519152918190036101000190a15061560f565b87156154c7576154bd8c8461496c565b6154c78c8a6149eb565b6000886154dc576154d78c613e8d565b6154e5565b6154e58c612dae565b9050600080516020615e2b833981519152868f8f8f8f8f8f886155088c8c614866565b60408051998a526001600160a01b0398891660208b015296881689880152949096166060880152608087019290925260a0860152151560c085015260e084019290925261010083019190915251908190036101200190a18454600186015460028701546003880154600489015460058a0154604080518d81526020810197909752868101959095526060860193909352608085019190915260a084015260c0830152517f73af1d417d82c240fdb6d319b34ad884487c6bf2845d98980cc52ad9171cb4559181900360e00190a1506000858152605d602052604081208181556001810182905560028101829055600381018290556004810182905560058101829055600601555b8761561e5761561e8b8a615778565b811561565e578715615638576156388c6121388e85613061565b60006156448d83613061565b90506156518d828a614f57565b955061249e945050505050565b5060009c9b505050505050505050505050565b604080516001600160a01b038416602482015260448082018490528251808303909101815260649091019091526020810180516001600160e01b031663a9059cbb60e01b1790526138d1908490615ae7565b604080518082018252601b81527a5661756c743a20696e73756666696369656e74207265736572766560281b6020808301919091526001600160a01b03851660009081526058909152919091205461571c918390615882565b6001600160a01b03831660008181526058602090815260409182902093909355805191825291810183905281517f533cb5ed32be6a90284e96b5747a1bfc2d38fdb5768a6b5f67ff7d62144ed67b929181900390910190a15050565b6001600160a01b0382166000908152605f6020526040902054808211156157b857506001600160a01b0382166000908152605f60205260408120556138d3565b6157c28183614866565b6001600160a01b0384166000908152605f6020526040902055505050565b6000818361586c5760405162461bcd60e51b81526004018080602001828103825283818151815260200191508051906020019080838360005b83811015615831578181015183820152602001615819565b50505050905090810190601f16801561585e5780820380516001836020036101000a031916815260200191505b509250505060405180910390fd5b50600083858161587857fe5b0495945050505050565b600081848411156158d45760405162461bcd60e51b8152602060048201818152835160248401528351909283926044909101919085019080838360008315615831578181015183820152602001615819565b505050900390565b60006158e730615b98565b15905090565b60008060006158fe89898987611a14565b6000818152605d6020526040812080546003820154939450909261592b918d918d918d918b918d91614701565b905060008060008061594c8d876000015488600201548d8a600601546124e2565b875491955085935091506159649061180d8d846143fb565b9250505060008280156159775750600082115b156159a757506005840180548201905580886159a75760006159998e84613061565b90506159a58e82614b82565b505b821580156159b55750600082115b156159f95760018501546159c99083614866565b6001860155886159ed5760006159df8e84613061565b90506159eb8e82614a6a565b505b60058501805483900390555b8a15615a2157615a09818c6146a9565b6001860154909150615a1b908c614866565b60018601555b84548a1415615a44576001850154615a3a9082906146a9565b6000600187015590505b8084811115615a5e57615a578286614866565b9050615a92565b6001860154615a6d9086614866565b60018701558915615a92576000615a848f87613061565b9050615a908f82614b82565b505b60408051888152851515602082015280820185905290517f3ff41bdde87755b687ae83d0221a232b6be51a803330ed9661c1b5d0105e0d8a9181900360600190a1909e909d509b505050505050505050505050565b6060615b3c826040518060400160405280602081526020017f5361666545524332303a206c6f772d6c6576656c2063616c6c206661696c6564815250856001600160a01b0316615b9e9092919063ffffffff16565b8051909150156138d157808060200190516020811015615b5b57600080fd5b50516138d15760405162461bcd60e51b815260040180806020018281038252602a815260200180615eba602a913960400191505060405180910390fd5b3b151590565b6060611b43848460008585615bb285615b98565b615c03576040805162461bcd60e51b815260206004820152601d60248201527f416464726573733a2063616c6c20746f206e6f6e2d636f6e7472616374000000604482015290519081900360640190fd5b60006060866001600160a01b031685876040518082805190602001908083835b60208310615c425780518252601f199092019160209182019101615c23565b6001836020036101000a03801982511681845116808217855250505050505090500191505060006040518083038185875af1925050503d8060008114615ca4576040519150601f19603f3d011682016040523d82523d6000602084013e615ca9565b606091505b509150915061249e82828660608315615cc3575081611cb4565b825115615cd35782518084602001fd5b60405162461bcd60e51b8152602060048201818152845160248401528451859391928392604401919085019080838360008315615831578181015183820152602001615819565b828054600181600116156101000203166002900490600052602060002090601f016020900481019282601f10615d5b5782800160ff19823516178555615d88565b82800160010185558215615d88579182015b82811115615d88578235825591602001919060010190615d6d565b50615d94929150615dd5565b5090565b6040518060e00160405280600081526020016000815260200160008152602001600081526020016000815260200160008152602001600081525090565b5b80821115615d945760008155600101615dd656fe5265656e7472616e637947756172643a207265656e7472616e742063616c6c0020853733b590dce729d9f4628682ebd9a34d2354e72679e66f43a008fc03b77393d75d64d1f84fc6f430a64fc578bdd4c1e090e90ea2d51773e626d19de56d30496e697469616c697a61626c653a20636f6e747261637420697320616c726561647920696e697469616c697a6564536166654d6174683a206d756c7469706c69636174696f6e206f766572666c6f77e1e812596aac93a06ecc4ca627014d18e30f5c33b825160cc9d5c0ba61e452275361666545524332303a204552433230206f7065726174696f6e20646964206e6f7420737563636565645d0c0019d3d45fadeb74eff9d2c9924d146d000ac6bcf3c28bf0ac3c9baa011aa26469706673582212205975b88c6725106ea9e947eaf9662d5932d468728569cb491e423a7a33b600f964736f6c634300060c0033",
  "linkReferences": {},
  "deployedLinkReferences": {}
}